:020000040800F2
:1000000000040020010300080303000803030008A4
:1000100003030008030300080303000803030008A8
:100020000303000803030008030300082129000854
:100030000303000803030008030300080303000888
:100040000303000803030008030300080303000878
:100050000303000803030008030300080303000868
:100060000303000803030008030300080303000858
:100070000303000803030008030300080303000848
:100080000303000803030008030300080303000838
:100090000303000803030008030300080303000828
:1000A000030300081134000803030008813400082A
:1000B0009134000803030008030300080303000849
:1000C00003030008030300080303000803030008F8
:1000D00003030008030300080303000803030008E8
:1000E00003030008030300080303000803030008D8
:1000F00003030008030300080303000803030008C8
:1001000003030008030300080303000803030008B7
:1001100003030008030300080303000803030008A7
:100120000303000803030008030300080303000897
:100130000303000803030008030300080303000887
:1001400003030008030300080303000861350008E7
:100150000303000803030008030300080303000867
:100160000303000803030008030300080303000857
:100170000303000803030008030300080303000847
:100180000303000803030008030300080303000837
:100190000303000803030008030300080303000827
:1001A0000303000803030008030300080303000817
:1001B0000303000803030008030300080303000807
:1001C00003030008030300080303000803030008F7
:1001D00003030008030300080303000803030008E7
:1001E00072B6394880F30888384880F3098838485F
:1001F0004EF60851CEF20001086040F20000CCF249
:1002000000004EF63471CEF200010860BFF34F8F4C
:10021000BFF36F8F40F20000C0F2F0004EF688513D
:10022000CEF200010860BFF34F8FBFF36F8F4FF026
:100230000000E1EE100A4EF63C71CEF200010860BB
:10024000062080F31488BFF36F8F03F021FC02F0C7
:100250001FFA4FF055301F491B4A91423CBF41F8ED
:10026000040BFAE71C49194A91423CBF41F8040BC0
:10027000FAE71A491A4A1B4B9A423EBF51F8040B3F
:1002800042F8040BF8E700201749184A91423CBF96
:1002900041F8040BFAE703F0B3FB03F0F1FB144C55
:1002A000144DAC4203DA54F8041B8847F9E702F016
:1002B00077FD114C114DAC4203DA54F8041B88470A
:1002C000F9E703F0D5BB000000040020000800207F
:1002D0000000000800000020000400208440000806
:1002E00000080020A4080020A8080020280C0120F5
:1002F000E0010008E0010008E0010008E00100085A
:100300006EE700F000F8FEE72DE9F04F2DED108AC2
:10031000C1F80CD0C3689D46BDEC108ABDE8F08FD3
:10032000002383F311882846A047002002F008FB31
:10033000FEE702F035FB00DFFEE7000000000000F2
:10034000264B03EB80022DE9F041D468D3F86CE032
:100350006669D6E900128A422CD2451CB4F810C056
:100360000EEB05350EEB40178A1AD7F8183962459F
:1003700028BF62469BB2B2EB830F2CD832B3D6F8BB
:100380000880042AD8F800302B600AD9541F24F0C2
:10039000030404344444434653F8041F29609C4238
:1003A000FAD1D6E9001308EB02041A449142C6E9D7
:1003B0000124D9D8DEF83428012303FA00F022EA18
:1003C0000002CEF834281846BDE8F08172B6044B1E
:1003D000044ADA62FEE70020BDE8F081E411002063
:1003E0005C120020A03B000800000000000000009C
:1003F00090F85C3003F01F02012A06D003F060037E
:10040000202B0BD000221046704790F85D100B296E
:10041000F4D10021C0E914118165F4E790F85D3052
:10042000212B0AD81F2BEDD9094B03650722002386
:10043000C0E91523012210467047222BE2D190F823
:10044000603013F0FD0F0CBF01220022DBE700BF7C
:100450001C08002000000000000000000000000058
:10046000022906D0032906D00129074818BF002019
:10047000704706487047052A03D8054800EBC200BC
:1004800070470020704700BF08400008703F000818
:1004900028400008000000000000000000000000EC
:1004A000202383F31188104B5B6813F4006302D19F
:1004B00083F311887047F1EE103AEFF30983683B3C
:1004C0004FF08071094AD961D2681A6683F30988AE
:1004D000074A116892698968926891428CBF054AFF
:1004E000054A9A61704700BF00ED00E030EF00E080
:1004F0005C120020330300083603000800000000EF
:10050000094A10B4D2E900344942201A08409842FE
:1005100005D3844203D35DF8044B5060704700203C
:100520005DF8044B704700BF8014002000000000FD
:1005300030B4202383F311880F4CD4E900354942AD
:10054000281A0840821A9A4214D3954212D3626044
:100550000A4B1A689A4204D0996992688968914254
:1005600004D3002383F3118830BC704772B6044A69
:10057000DA62FEE70020EBE7801400205C12002026
:10058000943C000800000000000000000000000093
:10059000084B1A689A4204D0996992688968914216
:1005A00003D3002383F31188704772B6024ADA62DC
:1005B000FEE700BF5C1200207C3C00080000000049
:1005C0000E4A0F4B52685B6F816830B4D31AD0E982
:1005D0000445C2685B1A01324168C260E4180268CF
:1005E000836045F100058B4288BF43609342C0E9B8
:1005F000044538BF036030BC704700BF001000E006
:100600005C1200200000000000000000000000005C
:10061000014B5B6883607047001000E00000000041
:1006200090F8203083B10F2B0ED000228168094B47
:1006300080F820201B689A688A42FBD85A68C0E973
:10064000003210605860704772B6024B024ADA629C
:10065000FEE700BF5C120020203D00080000000003
:1006600090F8203083B10F2B0ED000228168094B07
:1006700080F820201B689A688A42FBD25A68C0E939
:10068000003210605860704772B6024B024ADA625C
:10069000FEE700BF5C120020FC3C000800000000E8
:1006A00038B50368984215D004466FF001051A6802
:1006B0002260546093F82020042A184604D072B6B1
:1006C000054B064ADA62FEE75D62FFF7C9FF236861
:1006D0009C42ECD138BD00BF5C120020C43C000835
:1006E000F8B50468A04220D007460D46002604E075
:1006F0000B2A1BD02468A74217D0D4E903322B431E
:100700001542E360F6D0D4E90103416B90F8202054
:100710000B430A2A4363EBD1426A1342EAD0466292
:10072000FFF79EFF2468A742E7D1F8BD426A32EA8C
:100730000303DFD1F3E700BF00000000000000006A
:1007400008B5202383F3118890F82030072B0DD8AB
:10075000DFE803F0110C0C1508040C08426A9368DA
:1007600001339360D0E9003213605A604FF0FF33D9
:100770004362FFF775FF002383F3118808BD436AC6
:1007800000221A60F2E700BF000000000000000035
:10079000034A516853685B1A9842FBD8704700BF00
:1007A000001000E000000000000000000000000059
:1007B000FEE700BF00000000000000000000000095
:1007C00000EB810330B4DC6862691368D360F3B96D
:1007D000C26E02EB41134FF40020C3F810092368E6
:1007E00003F00303012B2AD008B202EB40100123CF
:1007F000D0F8004944F00444C0F80049D2F8340865
:1008000003FA01F1014330BCC2F83418704719B93A
:10081000402B84BF40231360258AC26E681E184493
:10082000B0FBF5F002EB411543EAC04343F000533F
:10083000C5F81039236803F00303012BD4D1D2F893
:10084000083813F4807F02EB411308B2D3F8004953
:1008500014BF44F0805444F00054C3F80049C4E786
:10086000204AF8B5D66E06EB40130446D3F8085973
:10087000C3F80859E80703D5D6F81038D90708D4C3
:100880002B0605D5D6F834280123A340134215D1F1
:10089000F8BD02EB8403D86843691F68D9688F42AA
:1008A00011D3138987680121A14023EA0103138131
:1008B000002FE5D010462146B847E1E72046BDE8C5
:1008C000F840FFF73DBDC91B0027C3E900172023EF
:1008D00083F3118810462146FFF772FF87F31188D2
:1008E000CEE700BFE411002000000000000000007F
:1008F00000EB810330B4DD68AB691C68DC6019B9BA
:10090000402C84BF40241C606B8AC06E2D685A1E28
:100910002244B2FBF3F202FB03F3033323F003039D
:1009200043EAC24300EB411405F0030243F0C04325
:10093000012AC4F8103B0AD009B200EB411130BCC7
:10094000D1F8003B43F00443C1F8003B7047D0F8B6
:10095000083800EB411213F4807FD2F8003B14BF3B
:1009600043F0805343F0005309B2C2F8003BE4E780
:100970002DE9F041244FFE6E06EB40130446D3F8F8
:10098000085BC3F8085B280703D5D6F814381907A5
:1009900031D4EA072DD5D6F81438DB0729D507EB73
:1009A0008403D9685CB98A69488A5568B5FBF0F355
:1009B00000FB13531BB91068D36898420DD37B8991
:1009C000CD680122A24023EA02037B818DB121463A
:1009D0002B460D48BDE8F04118471B1AC2E9003408
:1009E000202383F3118808482146FFF781FF84F311
:1009F0001188BDE8F08107EB84032146DB683846A7
:100A00005B689847C5E700BFE411002000000000C4
:100A10002DE9F04100234FF00F0E4FF0010C03279A
:100A200007E0056A25EA04040462490827D0920019
:100A3000013303F007045D00A40011F0010F0CFA6C
:100A400003F807FA05F50EFA04F4EED0466826EA34
:100A500008064660866826EA05068660C66826EAB5
:100A60000506C660066826EA05051543072B0560DE
:100A7000D7D9456A490825EA04044462D7D1BDE8BC
:100A8000F08100BF00000000000000000000000036
:100A9000F0B4068901248C401FFA84FC34400CD148
:100AA00000EB810546EA0C06ED6806816D69C5E933
:100AB0000034AA60F0BCFFF783BE72B6014B024A55
:100AC000DA62FEE75C120020303C00080000000003
:100AD00038B590F84C300546152B0CD8DFE803F0FC
:100AE000100B0B0B0B0B150B0B1010100B0B0B0B38
:100AF0000B0B0B0B3A2B72B61C4B1D4ADA62FEE74E
:100B000072B61A4B1A4ADA62FEE7C36E4168D3F82E
:100B100000290C6842F40012C3F80029D3F8002B16
:100B200042F40012C3F8002B0CB10621A0470623A3
:100B300085F84C3038BD0B2380F84C30202383F3EC
:100B4000118800231A461946FFF7A2FF002383F3FA
:100B5000118838BDC3689B695B68002BEAD1836D3F
:100B600003B19847002385F84C3038BD5C12002053
:100B7000643C0008000000000000000000000000CD
:100B8000F0B4468901248C401FFA84FC34400CD117
:100B900000EB810546EA0C06ED684681AD69C5E9C2
:100BA0000034AA60F0BCFFF7A3BE72B6014B024A44
:100BB000DA62FEE75C120020003C00080000000042
:100BC00038B590F84C300546152B2DD8DFE803F0EA
:100BD000312C2C2C2C2C362C2C0B1C4C2C2C2C2C57
:100BE0002C2C2C2C313190F8632090F86240436D0E
:100BF00044EA0224A34207D2C268128AB3FBF2F489
:100C000002FB1434002C36D0142385F84C302023FA
:100C100083F3118800231A4619462846FFF7B0FFD0
:100C2000002383F3118838BD72B61A4B1A4ADA6270
:100C3000FEE772B6174B184ADA62FEE7C36E4168E8
:100C4000D3F800290C6842F40012C3F80029D3F845
:100C5000002B42F40012C3F8002B0CB10621A04770
:100C6000062385F84C3038BD836D03B198470023C7
:100C700085F84C3038BD202383F311882346224663
:100C80002146FFF705FF84F311880A2385F84C30CD
:100C900038BD00BF5C120020583C00080000000076
:100CA0000378042B38D1016F83680A68F0B403F02D
:100CB0000113426700228F688360C0E90422C0E903
:100CC000062202624FF0FF34C06E00E0324600EBB5
:100CD00042110B46D1F80059002D02F1010605DA48
:100CE000D1F8005945F08045C1F80059D1F8005BB2
:100CF000002D05DAD1F8005B45F08045C1F8005BB6
:100D0000BA42C3F80849C3F8084BDFD14FF00113CA
:100D1000F0BCC0F81C38704772B6024B024ADA6267
:100D2000FEE700BF5C120020E83B00080000000066
:100D3000704700BF0000000000000000000000003D
:100D400038B5037D044613B190F84C308BB9201DA3
:100D500001250221FFF7C4FC04F10C002575FFF703
:100D60009FFC84F84C5004F14400BDE83840FFF784
:100D700097BC38BD0000000000000000000000002B
:100D80000A68202383F31188037A013B012B1DD8C5
:100D90000B7902EB830318624B790D3342F8230081
:100DA0008B7913B102EB830210620D4BC0F88C14E7
:100DB0001A6802219A42017204D09969926889687E
:100DC000914208D3002383F31188704772B6044B15
:100DD000044ADA62FEE772B6034ADA62FEE700BF4F
:100DE0005C120020D83D0008703C000800000000A4
:100DF000034670B41A4A43F8042B1A4A436000F1C0
:100E00007C0400F28C4300F10C01C26300F52172F6
:100E1000C0E90311C0E907440121C0E91522124EBF
:100E2000C36500F144050023046342624FF48274F9
:100E3000826602228361C0E91155C0E90D33C0E921
:100E40001B330064806746670172017580F84C109F
:100E500084620466C2620265426670BC704700BF6D
:100E600058400008E10F00082112000800000000AF
:100E700009B10020704772B6014B024ADA62FEE700
:100E80005C120020C43D00080000000000000000CB
:100E900038B5D0F88C140C682378042B02D1037A6F
:100EA000022B01D0012038BD0A796589012303FA9C
:100EB00002F22A42F6D1D0E90725AA4208D02046FC
:100EC000497904324FF48073FFF75AFE002038BD91
:100ED00080690028F3D0E5E7000000000000000072
:100EE0000D3138B550F8214094B1202383F3118897
:100EF000D4F88C241368527903EB8203DB689B6976
:100F00005D6835B92046FFF7C3FF002383F31188DE
:100F100038BD04216018FFF7E3FBD4E907329342A0
:100F20001CD01D60D4E90910A269034401328B4230
:100F3000A261E36101D3236BE361E06804F10C0378
:100F40008342DFD00268E260536090F82030042BC7
:100F50000CD100234362FFF783FBD3E7A269002A89
:100F6000DFD072B6044B054ADA62FEE772B6024B76
:100F7000034ADA62FEE700BF5C1200203C3B000837
:100F8000C43C000800000000000000000000000059
:100F900038B5036B002504468561C0E90733C0E915
:100FA0000D550C30FFF77CFBD4E9192304F1440004
:100FB000C4E915332265C4E91B552575FFF770FB9D
:100FC000201D84F84C500121FFF78AFB2046BDE824
:100FD0003840FFF75DBF00BF0000000000000000C8
:100FE000406BFFF755BF00BF00000000000000008D
:100FF00010B4D0E9014224EA0103214002F11004B7
:10100000A34000685DF8044B91401943816170472B
:10101000C368BBB1036910B484691960C169C2684F
:101020000B44A342036124BF436A0361013A036B8B
:10103000C2600022826213B15DF8044B18475DF86C
:10104000044B704772B6024B024ADA62FEE700BFF9
:101050005C120020443C000800000000000000007A
:10106000D0E904239A4204D0184650F8043B0B60A0
:101070007047C268002AF7D00020704700000000C7
:101080002DE9F04100EB810382B01E6AEEB1044607
:101090000D46202383F3118800EB8107301D0821C2
:1010A000FFF71EFBFB685B691B688BB906F1440008
:1010B00001A9FFF7D5FF024660B3019B29462046F0
:1010C000FFF7E6FC002383F3118802B0BDE8F0814E
:1010D000D6E915239A422DD0D6E91710326D034474
:1010E00001328B423265B36501D3B36EB365706C68
:1010F00006F144088045DBD003687364C3F80480BC
:1011000090F82030042B1DD100234362FFF7A8FA8A
:101110004046CDE7FB685A691268002AD2D01B8A84
:10112000013B1340CED1294604F15C022046FFF773
:10113000AFFCC7E7326D002ACED072B6044B054A29
:10114000DA62FEE772B6024B034ADA62FEE700BFDC
:101150005C120020D03B0008C43C000800000000E6
:10116000D0F88C2413681978042937D110B5017A86
:10117000022982B0044601D002B010BD11791A894B
:1011800001238B401342F7D1D0E915329342F3D1BA
:10119000026D002AF0D0C26E002AEDD0043AD21AB5
:1011A000EAD01A60D4E9171003448B42226D6365BC
:1011B00024BFA36E6365013A00232265E36601A99B
:1011C00004F14400FFF74CFF024640B1D4F88C0410
:1011D000019B01790068FFF75BFCCDE7704772B6B1
:1011E000014B024ADA62FEE75C120020E43D00088F
:1011F00008B5202383F311880448FFF7B1FF0448A2
:10120000FFF7AEFF002383F3118808BDC408002058
:10121000540D00200000000000000000000000004D
:1012200010B5446BD4F88C2413681978042982B063
:1012300002D1217A022901D002B010BD11791A8998
:1012400001238B401342F7D101A904F14400FFF7B9
:1012500007FF024638B1D4F88C04019B017900687D
:10126000FFF716FCE8E772B6014B024ADA62FEE7C6
:101270005C120020CC3D00080000000000000000CF
:10128000C368B3B110B4D0E906144369C2682344FB
:101290008B42436124BF436A4361013A036BC260DE
:1012A0000022826213B15DF8044B18475DF8044BCD
:1012B000704772B6014B024ADA62FEE75C12002008
:1012C0006C3B00080000000000000000000000006F
:1012D0004FF08043DA68920701D55863704772B6C1
:1012E000014B024ADA62FEE75C120020B83D0008BA
:1012F00038B5134D2B68AA69AB4204461ED09968D5
:1013000093688B4216D3A16800209942606204D88A
:101310002046BDE83840FFF7A3B91046FFF780F933
:10132000012384F820300146AC612046BDE83840F6
:10133000FEF7EABF72B6034BEB62FEE79368E2E7A3
:101340005C1200206C3D000800000000000000005E
:10135000084B99691A6810B481F820001068186069
:101360000124436082F820405DF8044B9A611046E6
:10137000FEF7CABF5C120020000000000000000061
:101380002DE9F0414B1C86B055D0494D2F4602291E
:1013900057F81C4FAB6905934FF08042064638BFA3
:1013A00002214448536A0490BC424CD0A86A1B1ADC
:1013B000C91834D3A2682468A368891A99420DF128
:1013C000040806D9444532D02468C91AA368994252
:1013D000F8D86368CDE90143C3F80080C4F80480FD
:1013E0000391A368591A4FF0FF33A1606B62304636
:1013F000FFF7AEFF049B6BB1EB69434535D0DDE9E8
:1014000001321360019BBB425A6003D09A68039972
:101410000A449A60AB69586A06B0BDE8F081A368D7
:101420009942CBD20844FFF753FFA368C6E772B6D0
:10143000214BEB62FEE71E4DFFF78AFFAB69586A4E
:1014400006B0BDE8F081AB620391D06801940DF164
:10145000040810F00200C5E90788029420D119445D
:10146000022351631061D360C1E7019BEB6100224D
:10147000BB425F60049217D09A680399A86A0A4435
:101480004FF080419A604B6A191A8A42C2D9C31A36
:101490001344012B98BF8A1C1044FFF719FFB9E7CA
:1014A00072B6064BEB62FEE74FF08043DA60B1E7BD
:1014B0005C12002041070008083D0008A83D000814
:1014C00008B50146202383F311880820FFF758FF51
:1014D000084B1A689A4204D09969926889689142C7
:1014E00003D3002383F3118808BD72B6024ADA627F
:1014F000FEE700BF5C1200207C3C000800000000FA
:1015000070B5154E04460D460CE0237ACBB9DDB11B
:10151000B3696268C3E9004213606360FFF730FF9C
:1015200000280DDBE36829460420002BEDD0E3689A
:101530006BB163691A6804331A44C4E90A320020A3
:1015400070BD6FF0010070BD4FF0FF3070BD72B61E
:10155000014B024ADA62FEE75C120020503B0008B1
:1015600038B50446202383F31188836ADBB113F86E
:10157000015BE26AA362934211D2144B1A689A4249
:1015800004D0996992688968914204D3002383F357
:101590001188284638BD72B60D4ADA62FEE7204649
:1015A000FFF76EFEE9E7FFF7ABFF054608B9A36A50
:1015B000DDE7064B1A689A42E8D099699268896813
:1015C0009142E3D272B6024ADA62FEE75C12002070
:1015D000D83C0008000000000000000000000000EF
:1015E0000C30FFF7BDBF00BF00000000000000008E
:1015F0000C304FF0FF31FFF7B3BF00BF0000000019
:1016000070B5154E04460D460CE0237ACBB9DDB11A
:10161000B3696268C3E9004213606360FFF7B0FE1C
:1016200000280DDBE36829460420002BEDD0E36899
:101630006BB12369E1691A1D0B44C4E90A23002038
:1016400070BD6FF0010070BD4FF0FF3070BD72B61D
:10165000014B024ADA62FEE75C120020143C0008EB
:1016600038B50D460446202383F31188836AEBB115
:101670001D70D4E90A3201339342A36210D2174B92
:101680001A689A4204D0996992688968914203D392
:10169000002080F3118838BD72B6114ADA62FEE785
:1016A000E16920460439FFF7B3FCE8E71146FFF78C
:1016B000A7FF08B9A36ADBE7084B1A689A4204D06F
:1016C000996992688968914203D3002383F3118852
:1016D00038BD72B6024ADA62FEE700BF5C12002033
:1016E000D83C0008000000000000000000000000DE
:1016F0004430FFF7B5BF00BF00000000000000004D
:1017000044304FF0FF32FFF7ABBF00BF00000000D6
:101710000EB42DE9F04F9E4B9E4E86B010AA03F1F9
:10172000FF3B02920092002525210BE03268994888
:10173000D26801359B4690475B4613F8011B002990
:1017400000F087802529F1D19BF801202D2A04BFC4
:101750000BF102034FF0010E1A7818BF4FF0000E84
:101760002B2A03BF5A7801215B180021302A03BFBE
:1017700017465A780133202703F1010B002A68D05D
:10178000002405E01BF8012B03EB4004002A60D085
:10179000A2F13003DBB2092B04EB8400F2D92E2A2C
:1017A00041D0002002F0DF034C2B58D0A2F1440CB2
:1017B000BCF1340F00F26181DFE81CF029015F0108
:1017C0005F015F015F0129015F015F015F015F014F
:1017D0005F0163015F015F015F015F015F01E7007E
:1017E0005F015F0191005F015F015F015F015F01C8
:1017F0005F015F015F015F015F01120129015F016C
:101800005F015F015F0129015F015F015F015F010E
:101810005F0163015F015F015F01EE005F01E700AF
:101820005F015F0191009BF8002092B12A2A00F02D
:101830002B810BF1010B0020A2F13003DBB2092B4D
:1018400000EB800CAED81BF8012B03EB4C00002AF8
:10185000F2D1284606B0BDE8F04F03B070471BF840
:10186000012B002AF5D0A2F14403342B00F20581AC
:10187000DFE813F0CD000301030103010301CD00F4
:101880000301030103010301030107010301030134
:101890000301030103018B00030103013500030170
:1018A0000301030103010301030103010301030118
:1018B0000301B600CD000301030103010301CD00C4
:1018C00003010301030103010301070103010301F4
:1018D0000301920003018B000301030135004FF067
:1018E000100C009A52F8043B00920DF1170000E032
:1018F00040461946B3FBFCF30CFB131909F1300207
:10190000392AC8BF09F13702D2B2614500F1FF3868
:1019100000F8012CECD203AB0DF11701A1EB080884
:101920009C4601E010F8012B0CF8012B8842F9D1FC
:10193000A4EB08029A4608F1FF3822EAE274BEF1ED
:10194000000F04D1002AC4F1000400F3A680B8F10E
:10195000000F0CDB08F10109D14433681AF8011BB0
:10196000DB6830469847CA45F7D101354544002C1D
:101970003FF4E2AEA04633683946DB68304698470C
:10198000B8F10108F7D12544D6E64FF00A0CA8E7D4
:10199000E93A0008540D0020009B53F804ABBAF15B
:1019A000000F00F0B9809AF80020002840F09580E0
:1019B000002A00F0968047F6FE70D04601E0C14252
:1019C00005D418F8012FAAEB0801002AF7D1A8EBDB
:1019D0000A08A4EB0802009308F1FF382027ACE7BF
:1019E000009A52F8041B8DF80C10631E00922027F9
:1019F00023EAE374BEF1000F04D1002BC4F100040C
:101A000000F385804FF000080DF10C0AA2E7009B5F
:101A100053F8040B0093002871DB00296CD02B23B2
:101A20008DF80C300DF10D0103AB01F10B02DFF865
:101A3000089101929446A9FB0082D20802EB820A27
:101A40009046A0EB4A0230328246D2B2BAF1090F78
:101A50000CF8012D4046EEDC0198A0EB0C00084488
:101A600001E01CF8012F01F8012B8142F9D1C91ABC
:101A7000621A01F1FF389A465FE78DF80C20631E69
:101A8000B6E74FF0080C2CE7009B9BF8012053F8B9
:101A9000040B00930BF1020B84E6A1469AF80010A8
:101AA0002D290ED04C4633683946DB6830469847BE
:101AB0000134F8D1B8F1000FA5EB0905BFF64AAF24
:101AC0003AE6302FEED133681A48DB6898470AF1BE
:101AD000010A013508F1FF38E4E712B101387FF55A
:101AE0006CAFBEF1000F1DD1002CC4F100090093B2
:101AF0001BDC4C4620273AE703AB194695E72D231C
:101B00008DF80C3040420DF10D0103AB8DE7A1467D
:101B1000F0460DF10C0AC1E7DFF820A000283FF4E1
:101B20004AAFDBE70093202721E720274FF0FF385B
:101B3000B4E700BF540D0020CDCCCCCCEC3A00086B
:101B40002DE98048DFF8D8B2A94BCBF808304FF424
:101B50000043ABF8023001234FF480428BF8003091
:101B60008BF80630A34BABF80420DFF8B8A2A24DE7
:101B7000A24CDFF8B492DFF8B482022287B01A8058
:101B800046F2A810FFF79CFC9D480378002B00F05C
:101B9000D480984B1B88002B00F0CF809949013BE3
:101BA0009BB2002203EB43030270881D00EB43034A
:101BB00011F8040C08B10888024406319942F7D1A3
:101BC00091499248FFF7A4FD41F28830FFF778FC75
:101BD000202383F31188874B1B88002B00F094800F
:101BE00000230493BDF81030059303EB43020BEB85
:101BF00042031BF81220002A00F0B380844E59885B
:101C000032789F8801913AB9D5E901132868994043
:101C100001233370FEF7FCFEEFF3118313B9202389
:101C200083F31188002F43D0019B7A480297D90B88
:101C30000CBF4FF480620022002342EA81620392CB
:101C40001E461F46019A00939918FFF7D1F9724971
:101C5000039B70484FF4004CA1F818C0A9F818C0B5
:101C6000C8F81830009B072100BF013989B200294C
:101C7000FAD1FA07296864D5D1F810C0D5E9011264
:101C80002CFA02FC0CEA01018E4262D0023F4FF4B2
:101C9000004C4FF48061A9F81AC0A8F8181000BFD2
:101CA00000BF00BF029A9A4207F10107CAD817463F
:101CB000DAF800303B44CAF80030EFF31183002B10
:101CC00040F0B6804B4E059B318801338B4214DACD
:101CD00003EB43030BEB4303DAF800209B88134428
:101CE000B3F5004F09D9494B4C491B6847485B681D
:101CF000984700233188CAF80030049B01330493CD
:101D00009BB299423FF66EAFDAF800202AB13F4B02
:101D100042491B683D485B6898472368A34205D049
:101D2000A2699B6892689A42C0F09A80002383F36C
:101D3000118842F21070FFF7C3FB314A0123137080
:101D40001EE70A69AE68696822FA06F63140CEB22B
:101D50009DE7DAF80010314A1944013356549BB21A
:101D600095E75E881B7907EE903AEFF3118313B97C
:101D7000202383F3118827483146FFF739F9264B92
:101D80004FF400425A83224B1F461B7843B1D5E9DA
:101D9000011328689940012200233B70FEF738FEAA
:101DA00017EE901A1448FFF723F9F60B4FF4004290
:101DB000B306A9F818200EB943F48063C8F81830A8
:101DC000062300BF013B13F0FF03FAD14FF400429A
:101DD0004FF48063A9F81A20A8F8183000BF00BF9C
:101DE00000BF00BFEFF3118373BB024B198884E778
:101DF00000C00040540A01200C0800205C120020A2
:101E0000A894002028950020E83A0008540D0020EE
:101E1000180800200008002000000240881400205C
:101E2000249500208894002000040240000802400D
:101E30002368A34204D0A2699B6892689A4217D390
:101E4000002383F311883DE72368A34204D0A269ED
:101E50009B6892689A4207D3002383F31188C4E7F2
:101E600072B6054BE362FEE772B6034BE362FEE730
:101E700072B6014BE362FEE7AC3C000800000000D4
:101E800070B590F84C30044613B1002380F84C3004
:101E900004EB81016268CB681B6A19685B68236682
:101EA000E16593682BB32046984710B3636D94F8AF
:101EB0005C0094F8631094F8622042EA01229A428E
:101EC0003CBF62651346020600F1D080002B00F093
:101ED0008780152384F84C30202383F31188002158
:101EE000D4E914232046FEF74BFE002383F3118828
:101EF00070BD94F85C0010F060061CD194F85D2071
:101F000000F07F0343EA022340F20232934200F0E2
:101F1000FD8044D8B3F5807F00F00F8122D9B3F55E
:101F2000817F00F01981B3F5407F04D194F85E30D1
:101F3000012B00F0BC80E26ED2F80039616843F4F6
:101F40000013C2F80039D2F8003B0D6843F40013C7
:101F5000C2F8003B15B106212046A847062384F8A5
:101F60004C3070BD012B59D0022B49D194F960102F
:101F700094F86020002902F00F01B4BF48315831B5
:101F8000E26E490151580D04D6D589024CBF914AE1
:101F9000914A226502210022C4E9151289E7B3F5AE
:101FA000006F00F0AC8040D9B3F5106F32D12378C8
:101FB000042B00F0868094F85E304BB1626884F8A0
:101FC000673004212170136813B10221204698471D
:101FD0000023C4E9143394F85C00A365030656D4C7
:101FE0000B2384F84C30202383F3118800231A46F6
:101FF00019462046FEF74CFD002383F3118870BD7F
:10200000002B98D1022204F16401A365C4E91412E3
:1020100013464EE740F6024293428CD16F4B236544
:1020200000220223C4E9153243E7B3F5A06F5CD068
:10203000A3F5C063012B3FF67EAF94F861006168A1
:1020400094F860304D6894F85E2094F85F1043EA8D
:1020500000232046A84700283FF46DAFD0E90032A6
:1020600094F85C00A665C4E9142322E77BB1092338
:1020700084F84C30202383F311880021D4E9142301
:102080002046FEF705FD002383F3118870BD14235D
:1020900084F84C30202383F3118800231A46194614
:1020A0002046FEF76DFD002383F3118870BDB4F860
:1020B0006430266543F00203C4E91566A4F8643071
:1020C0008CE7202383F311882046FEF7E9FD86F391
:1020D00011880321636884F8676021701B68002BF6
:1020E0003FF469AF2046984765E7B4F85C30B3F534
:1020F000A06F48D00023C4E91433A3656EE704F150
:1021000067020123C4E91423A665D2E694F85E3081
:10211000002B7FF410AF94F8603013F00F02E9D079
:1021200013F0800FE36E03EB421344D1D3F8002B7E
:1021300042F40012C3F8002BDCE794F85E30012B68
:102140007FF4F9AEB4F86430266523F00203C4E9E5
:102150001566A4F8643041E794F85E30002B7FF4F4
:10216000EAAE94F8603013F00F02C3D013F0800F82
:10217000E36E03EB421325D1D3F8002B22F40012B7
:10218000C3F8002BB6E794F85E10E26E84F8661090
:10219000D2F80038656823F4FE632D6843EA011322
:1021A000C2F8003825B120460121A84794F85C0008
:1021B000032323709EE7D3F8002942F40012C3F8EA
:1021C000002997E7D3F8002922F40012C3F8002968
:1021D00090E700BFCC3E0008F03D000880400008BA
:1021E0002DE9F04F83B005460C46934601934FF01E
:1021F000200888F31188A86A344F0026B1460028C9
:1022000035D0EB6AABEB06021B1A9A4228BF1A467E
:10221000402A924632D9214604F1400E0C684A68A1
:102220008B68D1F80CC0C0F80CC010317145046047
:102230004260836000F11000F0D1AB6AEA6A40337B
:102240009A420C4606F14006AB6222D93B68BB427B
:1022500004D0BA699B6892689A4220D389F31188A6
:102260005E452BD288F31188A86A0028C9D101994C
:102270002846FFF7C5F9B0B9A86AC2E7214601F0C0
:1022800009FCAB6AEA6A53449A4256445444AB622E
:10229000DCD8E96928460439FEF7BAFED6E772B6FB
:1022A0000B4BFB62FEE73B68BB4204D0BA699B68FC
:1022B00092689A4206D3002383F31188304603B014
:1022C000BDE8F08F72B6024BFB62FEE75C120020A5
:1022D000D83C0008000000000000000000000000E2
:1022E0004430FFF77DBF00BF000000000000000089
:1022F00044304FF0FF33FFF773BF00BF0000000012
:102300002DE9F04F83B005460F46934601934FF0F9
:10231000200989F31188A96ADFF8E0800026B24617
:10232000002937D0EB6AABEB06045A1A944228BF57
:102330001446402C35D901F1400E3B460C684868E4
:102340008A68D1F80CC0C3F80CC0103171451C600C
:1023500058609A6003F11003F0D1AB6AEA6A403327
:102360009A4207F1400706F14006AB6225D9D8F83A
:102370000030434505D0D8F818209B6892689A42EF
:102380001FD38AF311885E452DD289F31188A96A7B
:102390000029C7D101992846FFF7B2F8B0B9A96A58
:1023A000C0E72246384601F075FBAB6AEA6A23446F
:1023B0009A4226442744AB62D9D82846FEF760FFEC
:1023C000D5E772B60C4BC8F82C30FEE7D8F80030D1
:1023D000434505D0D8F818209B6892689A4206D3E6
:1023E000002383F31188304603B0BDE8F08F72B646
:1023F000014BC8F82C30FEE7D83C00085C120020E6
:102400000C30FFF77DBF00BF00000000000000009F
:102410000C304FF0FF33FFF773BF00BF0000000028
:102420000378042B40F083802DE9F04700EB810610
:102430008A46F3680FB223B172B65E4B5E4ADA6227
:10244000FEE75469F2601CB123606360A360E3603F
:10245000936923B100221A605A609A60DA60F368C7
:10246000C46E1D68996905F003056A1E022A98BFAB
:10247000AD0404EB4A124FF0000C98BF05F18055F3
:10248000C2F810CB8CBF4D4D05F500454FEA4A1CF4
:10249000002951D0B3F812E00AF1580252014EEA75
:1024A0000501A1500AF11008D4F81C18012202FA03
:1024B00008F20A43C4F81C28596904EB0C024FF0D7
:1024C000000EC2F810E900294BD01A8A9F8B93089E
:1024D000D0E91C12012F88BF7B439F1847674868CB
:1024E000874261D80AF13F0042EA034304EB8000CF
:1024F0004FEA8A1242F020024360226123699A0661
:10250000FCD41220FEF744F9F3681B8A0AF1480252
:1025100043EA8A5352011D43A5500123D4F81C28D5
:1025200003FA0AF11143C4F81C18BDE8F08772B62B
:10253000204B214ADA62FEE704EB47120AF1100948
:10254000D2F8001B21F40041C2F8001BD4F81C286B
:102550004FF0010E0EFA09FE22EA0E02C4F81C2802
:10256000AAE70AF13F0204EB82024FEA8A131448F9
:10257000506043F02003236123699B06FCD404EBE5
:1025800047171220FEF704F9D7F8003923F4004367
:10259000C7F80039D4F81C38012202FA0AF123EAFC
:1025A0000101C4F81C18C0E772B6024B054ADA6292
:1025B000FEE700BF5C120020BC3B0008008000105A
:1025C00000040002843B000800000000000000003E
:1025D00070B5052910D8DFE801F0030F27030310B9
:1025E000202383F311882348FEF7AAFB2248FEF735
:1025F000A7FB002383F3118870BD202383F3118888
:102600001C4E1D4D301D0121FEF76AF80024281DC7
:102610000121347586F84C40FEF762F82C7585F878
:102620004C4084F3118870BD0546202383F3118844
:102630000478042C04D0032CDBD1FEF731FBD8E75F
:102640000E4A0221FFF7ECFE28460D4A0121FFF752
:10265000E7FE214628460B4AFFF7E2FE0A4A2846D3
:102660000321FFF7DDFE0348FEF792FC0248FEF768
:102670008FFCBEE7C4080020540D0020303E000847
:10268000543E0008783E00089C3E00080000000010
:10269000854A86481369864943F0FF03F0B4136105
:1026A0001369844C844D854E23F0FF031361136935
:1026B000136B43F0FF031363136D43F0FF031365C4
:1026C0004FF0FF370023D2F850C06360A760E56089
:1026D0004FF4FE4565617A4D23626562794D256050
:1026E0007360B7604FF05537F760736133627362A0
:1026F0003760754E43608660744EC6604EF6FF7656
:1027000046614FF0887603624362066070484B6012
:102710006FF440168E60C8604FF6FF7677204E61EA
:102720006C4D0B6248624FF42020086004F5A05401
:1027300069496B606948A960EF606E612B626B62EA
:102740002B60674D6360A560E7606661236263622A
:102750002360644C4360644984604FF48854C760CC
:10276000624D466103624362046061484B600F241E
:102770008C60C8604FF080544FF440404E610B6253
:102780004B620B6014642860136843F0010313600C
:1027900013689907FCD59168434B21F003019160C0
:1027A0009A6812F00C02FBD118683F4900F0F9005A
:1027B00018609A601A6842F4A0221A600B689B03A2
:1027C000FCD54A6F384B42F001024A675A6F9707AF
:1027D000FCD5484A5A601968444A41F08071196032
:1027E00053685E04FCD51168404B41F480311160A0
:1027F0005A68D503FCD51A683C4942F400321A6085
:102800004B689C03FCD5284B1A689001FCD53A4ACA
:10281000C3F884201968244A41F080611960136864
:102820001901FCD5354BC2F8883011681E4B41F0B8
:10283000805111601A689200FCD531499960314885
:10284000314AC3F88C004FF00061C3F8941012684D
:102850002E4B9A421ED02E4B40F205721A602C4A23
:10286000136803F00F03052BFAD10F4B9A6842F05F
:1028700002029A609A6802F00C02082AFAD15A6C95
:1028800042F480425A645A6E42F480425A66F0BC66
:102890005B6E70471F4A204B12689A42DBD11C4B7B
:1028A00040F205121A60DAE70038024000080240E0
:1028B000000C024000000240555500800004024018
:1028C0000AAA0A000000AE6AF3F0FF0F5555550240
:1028D0005555505500100240F3FFFFCF001802403D
:1028E000FFCF3F0000F30C30001C0240007000409E
:1028F00050555555085A40070430414404300344AC
:102900000094084003008000002004E011640020CF
:10291000003C024000ED00E041C20F410000000019
:10292000EFF3098305494A6822F0010268334A60DF
:1029300083F30988002383F31188704730EF00E0A8
:1029400008B52022034682F31188104DAC69A06AB5
:10295000636204F12806B04206D00368A362FDF763
:102960007FFEA06AB042F8D194F822303BB994F8C7
:1029700021309B0703D1D4E9043213615A610F203F
:10298000FEF7E6FC72B6024BEB62FEE75C1200203B
:102990008C3D000800000000000000000000000066
:1029A00010B5094C2368A0691A682260012154609F
:1029B00083F82010A361FDF733FE0146A069BDE84E
:1029C0001040FDF7A1BC00BF5C1200200000000019
:1029D0002DE9F04F202383B0064683F31188AD4CD8
:1029E0002369216893F82220A14202F1010283F8B1
:1029F000222004D0A0698A688168914239D30022DC
:102A000082F311884FF020081746DA69964270D099
:102A100088F311881D69A5423FD095F82220FF2A2E
:102A200037D0013285F822202268A24204D0A16961
:102A300092688968914224D387F3118888F31188BA
:102A400093F82220CAB1013A83F822201A6A02F0D0
:102A5000FF120F2A23D02368A34204D0A2699B68E7
:102A600092689A4211D387F31188002D42D02B46E9
:102A7000CBE772B6884BE362FEE772B6874BE36240
:102A8000FEE772B6844BE362FEE772B6844BE36204
:102A9000FEE772B6834BE362FEE70025C4E7D3E9A5
:102AA0000412206811611969A0424A6104D0A26928
:102AB000816892688A4261D387F3118893F8212054
:102AC00002F00302012A19D0022ACED11A6CDB6966
:102AD00088F31188206811681960A0421360C2D081
:102AE000A269836892689A42BDD272B66E4BE36265
:102AF000FEE71D46284603B0BDE8F08FD96951E9CD
:102B000002B30733DB0841F8043C0BF10C0A88F3ED
:102B10001188DBF81400D4F81890002847D0D9F8B1
:102B2000082083689A4209D990F820308260062BE9
:102B300000F0A680072B00F089801BB3524604E00A
:102B40009068D9F80830984202D312689245F7D1BC
:102B500053680191C9E900230620C3F80090C2F828
:102B60000490C9F824A0FEF7F3FBDBF814300199B8
:102B7000994514D072B64D4BE362FEE772B6484BEE
:102B8000E362FEE7D0E900324FF0010C80F820C08C
:102B900013605A600191FDF763FD0199CEE7D9F802
:102BA00038309A4509D072B6404BE362FEE7D9F857
:102BB0003830CBE90593C9F838A02268A24205D085
:102BC000A36992689B689342C0F08880A1F10800D5
:102BD0000BF1040C87F311886246904205D35368C9
:102BE000013302EBC30398422CD39445136801D000
:102BF000904225D90BB1984222D251F804CC41F829
:102C0000083C106051F8083C0CF1010C00EBCC0EB4
:102C1000734567D0D2F804C00CF1010302EBC30383
:102C200098426ED0A16988F311888B6B002B00F05D
:102C3000AA809A6891425ED072B61D4BE362FEE7AD
:102C40001A46CAE772B61B4BE362FEE7D0E9003CC6
:102C5000D0F824E0CCF80030C3F804C0F44603E018
:102C6000DCF808309A4203D8DCF800C0E645F7D11A
:102C7000DCF80430C0E900C31860CCF804005DE75C
:102C8000D0E9003CD0F824E0CCF80030C3F804C010
:102C9000F44615E05C120020F03C00087C3D000882
:102CA0007C3C0008983D0008A03C0008143D00084A
:102CB000603D0008543D0008DCF808309A4203D813
:102CC000DCF800C0E645F7D1DCF80430C0E900C309
:102CD0001860CCF80400DEF8080020E772B62C4B30
:102CE000E362FEE7D3E9003E41F8083C0EEB0C033B
:102CF00041F8043C8EE79A450AD072B6254BE36250
:102D0000FEE751E90213013363441160536089E720
:102D1000DBF80C00DBF818208A63834230D0D1F84E
:102D20003CC052B1D2F800E0724504D0DEF808E0B1
:102D3000F44538BFF446D268F3E70268C1F808C02A
:102D4000816BCBF80C205360CBE905018363FDF761
:102D500087FC2268A36992689B689A427FF683AEDB
:102D6000FFF71EFE2368A3423FF47DAEA2699B6875
:102D700092689A42BFF477AE72B6054BE362FEE703
:102D8000CBF81470EEE772B6024BE362FEE700BFC9
:102D9000883C0008603D00080000000000000000C2
:102DA000AD4BAE481A6962F0FF0280B51A611A692C
:102DB000D2B21A614FF0FF341A695A695C6100227D
:102DC00059695A615969196A61F080511962196A21
:102DD00001F080511962196A596A5C62596A5A6233
:102DE000596A196C41F080511964196E41F0805193
:102DF0001966196E016841F480710160196F01F460
:102E00004071B1F5007F86B003D04FF4803119676F
:102E10001A67924E924C73689249934AA26123F4C6
:102E20000073736060224FF4807640274FF0800E6D
:102E30004FF4007381F806238C4DC1F880718648E9
:102E40000F6081F807234FF48067C1F880E1C1F873
:102E500000E081F80823C1F880610E6081F8092341
:102E6000C1F880310B604FF4000381F80A234FF062
:102E7000010CC1F880710F6081F817230427C1F895
:102E800080310B60002381F82823C1F884616360DE
:102E90004E6084F800C0E360277485F800C06B6260
:102EA000AB63AB62EB63026CEB6242EA0C0202645E
:102EB000026EDFF8F4812B6442EA0C020266026EB5
:102EC000D8F808002B6340EA0C00C5E901336B64B5
:102ED0006B63AB64C8F808004FF08040644C654EEB
:102EE000654A42F22738C0F828804FF0FF38C0F812
:102EF0002C80A3608361646043632461C36043608A
:102F0000C0F814C0C0F800C04FF0A04081F81CE326
:102F10004FF0805CE86659482867C1F880C1C1F865
:102F200000C004F11C01DFF884C124606461C4E9BD
:102F3000071106F10C01C6E90311C6F800C0C6E985
:102F40000133736102F1100C1426C2F810C09661AF
:102F500002F1280C1C2602F12401C2F828C01663D5
:102F600002F1400C02F144065162C2F840C002F185
:102F70003C0156644248DFF838C1424ECDF800802B
:102F8000C4E90983D1634FF000083F4963674FF0FC
:102F90000009C2E90022C0E900C6019393605361B1
:102FA000D761D3625763116291630293CDE90489BB
:102FB00003936846FDF72CFB6846FDF701FB013FD4
:102FC000F7D1324B61690098606780224FF00108A9
:102FD000A263E2662E4E84F8517003F12C0203F1D5
:102FE0002800C4E91977C4E9104184F85280A66426
:102FF0000B61C4E90533C4E9160284F85080E76424
:10300000226687F3118862B6224B234AD9684FF6AD
:10301000FF00014000F160400A43A0F60F30DA6083
:10302000C2681E4942F08072C2600A68102042EAFB
:1030300008024FF020090A60D87783F8229087F3BE
:10304000118862B6164E3046FFF7C2FC90B372B6D6
:10305000144BE362FEE700BF0038024000700040FE
:10306000A808002000E100E000000140E411002079
:103070005C1200208C940020D4120020C03E000876
:103080008014002000000220010500088C1200209E
:10309000F43D000800ED00E00003FA05001000E038
:1030A00020130020343D0008002004E03105000812
:1030B000280C012089F31188B4486369B44AC6F822
:1030C000208106F1B401C6E95478C6E9491486F8AE
:1030D0003A810221C6F8F400DFF82883A6F83811F7
:1030E00006F58C70C6E94B32C6F8346106F5A0725D
:1030F000C6F8F870C6F84C71C6F81481186106F568
:10310000A273C6E95023C6F848316061FEF7F0F8B3
:10311000FDF73EFA9F49A04BA0480F8142224A800A
:103120009F4A486003F10A0113F8010BD7709942D6
:10313000907002F10202F7D19A4B9B4A03F10B0007
:10314000002113F8016BD1708342967002F10202E4
:10315000F7D1964B964A03F11000002113F8016F46
:10316000D1708342967002F10202F7D1914B924ADC
:1031700003F10E01002613F8010FD67099429070EA
:1031800002F10202F7D18D48FDF732FE8C498B48DF
:10319000FDF7F6FD8B48FDF72BFE8B498948FDF7BF
:1031A000EFFDEA6ED2F8043843F00203C2F80438A7
:1031B0004FF47A70FEF784F9202383F311882B787B
:1031C0005A1E012A2AD8814A6A60012BC5E9036682
:1031D000C5E90566C5E907665AD023680222A342FD
:1031E0002A7008D0A2699B6892689A4203D272B68C
:1031F000774BE362FEE7002383F31188EA6E754D97
:10320000D2F8043823F00203C2F804382846FFF746
:10321000DFFB38B172B6704BE362FEE772B66F4BFC
:10322000E362FEE7202383F311886D496369C5F8E3
:10323000680105F59272C5E96524C5E96F00C5F816
:10324000641102206749A5F8A801012205F5C470A0
:1032500085F8AA218022C5E96731C5F89021C5F813
:10326000C421C5F8A45105F5D872C5F88481186148
:1032700005F5DA73C5E96C23C5F8B8316061FEF76E
:1032800037F8FDF785F9584C2046FEF719F9FBE7AA
:10329000564BEF6E596B564A41F080015963596D98
:1032A00041F080015965596D596941F080015961BA
:1032B000596921F0800159615B694E49E02382F828
:1032C00043330823C2F8883193604B4BF960C02226
:1032D000C7F800384FF40413C7F8006E3A60BB63B8
:1032E0003B69002BFCDA01233B610C20FDF750FA0F
:1032F0003E6916F00106FBD11220FDF749FA3B6941
:10330000002BFCDAD5E91B13D3F808E00023BB60DF
:103310004FF0FF3C00E04E4601EB46121346D2F858
:103320000009002806F1010905DAD2F8000940F089
:103330008040C2F80009D2F8000B002805DAD2F864
:10334000000B40F08040C2F8000BB645C3F808C936
:10335000C3F808CBDFD16B68DA684FF00113C1F80E
:103360001C380023C7F81038C7F81438C7F81C38C1
:103370004AB1224BBB614FF0FF337B61BB6843F026
:103380000103BB6029E71E4BBB61F4E7B1070008EE
:10339000F43A000824080020FC3A000847005700CF
:1033A00030080020083B000848080020133B0008B4
:1033B00060080020233B000884080020C408002087
:1033C000503F0008540D0020583F0008603F00089F
:1033D000E43C0008580A0120403D0008943B0008E6
:1033E000411B0008343B0008A08601000038024061
:1033F00000E100E04014004003002002083C30C01F
:10340000003C30C021030008000000000000000064
:1034100038B5174DAB691C69DA681440E2B2D24383
:103420001A61A30704D56B681B690BB1284698473E
:10343000600704D56B689B690BB10D48984721075D
:1034400004D56B681B6A0BB109489847E20604D59E
:103450006B689B6A0BB106489847E30704D56B6815
:103460009B680BB102489847BDE83840FDF718B893
:10347000A80800200000000000000000000000007C
:10348000FFF7C6BF000000000000000000000000C1
:103490002DE9F8434FF080442369E2681340DAB223
:1034A000D2439B07226103D4BDE8F843FCF7F8BF81
:1034B000202383F31188264D606AEB69AA6A996814
:1034C000861AB14205F11C0898BF00271FD84FF09B
:1034D000200900E0AA6A18680A444045AA62A6EBDF
:1034E0000106DA68C0F80480E861DF6008BFE760C1
:1034F00087F311881869904789F31188EB699968F7
:103500008E42E7D2606AAA6A861A8E42DFD24345AB
:1035100016D09968A862091A0A44022A2CBF80189A
:1035200002309A60FDF7D4FE4FF08043AA6A5B6ACE
:10353000801A9B1A834203D972B6064BEB62FEE7F0
:10354000002383F31188BDE8F843FCF7A9BF00BF4F
:103550005C120020B83C00080000000000000000E1
:103560002DE9F84FA54CE66E7569B3691D4015F459
:103570008058756140F04481002DC0F2CE8029054D
:1035800038D5D4E91B730021D3F808904FF0FF3CE5
:1035900000E0714607EB41121346D2F800090028FB
:1035A00001F1010E05DAD2F8000940F08040C2F8BE
:1035B0000009D2F8000B002805DAD2F8000B40F021
:1035C0008040C2F8000B4945C3F808C9C3F808CBCE
:1035D000DFD1227884F868206368052222701B6896
:1035E0004FF00112C7F81C2813B1844804219847F2
:1035F0000023A360AA040CD5D6F8083813F0060FF0
:10360000F36823F470530CBF43F4105343F4A053F6
:10361000F3602B0735D4EF023BD4A80200F1C2803F
:10362000EB0600F194802B03D6F8184811D5E70378
:1036300000F1BA81A60300F1BD81600300F1C081F1
:10364000210300F1C381E20200F1C681A30200F16F
:1036500052816F0311D5E60700F18A81A50700F1B9
:103660008D81600700F19081210700F19381E206CE
:1036700000F19681A30600F14581BDE8F84FFCF703
:103680000FBF6368DB68002BC5D05C489847EF022A
:10369000C3D50021D4F86CB0DFF860A10F464FF01D
:1036A000010906E0236F01379B68FFB29F4239464C
:1036B000B3D80BEB4713D3F8002902F44022B2F53C
:1036C000802FEFD1D3F80029002AEBDAD3F80029B4
:1036D00042F09042C3F80029D3F80029002AFBDB0E
:1036E000E26E890141F02001116113699906FCD451
:1036F0001220FDF74DF804EB87032189DA6809FAF7
:1037000007F3926821EA0303238112B13946504638
:1037100090473846FCF714FEC4E7D6F8003E9807F9
:1037200040F0E28094F8683062682370D6F804387C
:10373000126823F00103C6F80438002A3FF41FAFD3
:1037400005212E48904729057FF554AF19E7E16E12
:103750000B6A03F4F010B0F5802FC3F30A1203F0E4
:103760000F0300F0D680B0F5402F7FF45CAF04EB80
:103770008303DB68186A002A3FF455AF01F58054D3
:1037800000239F0708BFD4F80080072B014603F1F0
:10379000010304D801F8018B4FEA182808469A4221
:1037A000EFD140E7D4F86C90DFF850B000274FF02D
:1037B000010A06E0236F01379B68FFB29F423FF684
:1037C0002FAF09EB4712D2F8003B03F44023B3F5C7
:1037D000802FEFD1D2F8003B002B04EB87000AFAD0
:1037E00007F1E7DAC2686389D26823EA0103584621
:1037F00039466381002ADDD09047DBE7E4110020E1
:10380000002302212022C4E90333C4E90533C4E9BB
:103810000733636684F84C30A360217032613569E8
:1038200015F02005FBD11220FCF7B2FFD4F870C0D0
:10383000C6F834584FF00113DCF80870C6F81C388D
:103840004FF000604FF0FF3106EB4513BD42C3F867
:10385000000905F10105C3F8000BC3F80819C3F806
:10386000081BF1D1DCF800306367DCF80020E36E60
:10387000726210221A611D6915F01005FBD1122029
:10388000FCF786FFD6F800385548564923F4FE6306
:10389000C6F80038B369D4E91C7243F4402343F0FE
:1038A0001003B36102F1100363677F68E0600920D1
:1038B000C6F81008BB42C6F814084FF0C040C6F85E
:1038C000100BC6F8001BC6F81059C6F800194AD8E4
:1038D00063681B6842F48012B262002B3FF4CDAEE5
:1038E000414829469847C8E6D6F8003E23F003032E
:1038F000C6F8003E16E70520FDF73AF86F037FF59E
:10390000BCAEA8E60520FCF7ABFFBDE8F84FFCF71E
:10391000C7BD03F1020A04EB8A035B689B69D3E924
:1039200001971868A0EB090EC2B101F5805C002375
:10393000980708BFDCF800809E45394603F1010373
:1039400004D901F8018B4FEA18280F469A42EFD1AB
:1039500004EB8A0463689B69D3E9019717444A44DE
:10396000C3E901275FE672B6204B214ADA62FEE71F
:103970000020FCF775FFA5077FF573AE0120FCF76B
:103980006FFF60077FF570AE0220FCF769FF21072B
:103990007FF56DAE0320FCF763FFE2067FF56AAEAC
:1039A0000420FCF75DFF65E60020FCF7E1FFA603BD
:1039B0007FF543AE0120FCF7DBFF60037FF540AEEF
:1039C0000220FCF7D5FF21037FF53DAE0320FCF775
:1039D000CFFFE2027FF53AAE0420FCF7C9FF35E6DF
:1039E0000C3E000840800010E41100205C12002012
:1039F000843B000800000000000000000000000000
:103A0000F0B4144F144D1548154B164907F1700CBE
:103A10000026984211D904391A4651F8044F42F849
:103A2000044B9042F9D8421ED21A22F0030204320B
:103A300013449D4203D943F8046B9D42FBD867456C
:103A400005D0D7E90413D7E906051037E1E7F0BC44
:103A5000704700BFD03E0008280C0120280C012030
:103A6000280C012028410008000000000000000090
:103A7000FEE700BF000000000000000000000000A2
:103A8000704700BF000000000000000000000000C0
:103A9000704700BF40EA0103F0B59C0709D0431E00
:103AA0000A44914200D1F0BD11F8014B03F8014FD7
:103AB000F7E722F00303051F9608CC18A1420DD1A9
:103AC000910744BF34F8021B20F82610034448BF76
:103AD0000233D20744BF22781A70E4E751F8047B1E
:063AE00045F8047FEAE74F
:103AE80025640A00286E756C6C29000069646C6591
:103AF80000000000676F6D6962616B7570000000FF
:103B0800676F6D6962616B75705F0000676F6D69E3
:103B180062616B7570507974686F6E00676F6D695C
:103B280062616B7570446174610000006E6F6E6154
:103B38006D650000696271506F737446756C6C42F4
:103B480075666665724900006962714765744675F5
:103B58006C6C42756666657254696D656F757453F1
:103B68000000000069627152656C65617365456D9E
:103B78007074794275666665725300006F74675F8A
:103B880072616D5F616C6C6F6300000075736253E6
:103B980074617274000000006F74675F6669666F15
:103BA8005F77726974655F66726F6D5F627566666E
:103BB80065720000757362496E6974456E64706F52
:103BC800696E7449000000006F627152656C65612E
:103BD8007365456D70747942756666657249000053
:103BE80075736244697361626C65456E64706F6970
:103BF8006E747349000000007573625374617274C7
:103C08005265636569766549000000006F62714717
:103C18006574456D70747942756666657254696D30
:103C2800656F757453000000757362537461727424
:103C38005472616E736D6974490000006F6271504F
:103C48006F737446756C6C427566666572530000D6
:103C58005F7573625F657030696E00005F757362CF
:103C68005F6570306F7574006368537973556E6C57
:103C78006F636B006368537973556E6C6F636B0089
:103C88006368537973556E6C6F636B00636853791F
:103C980073556E6C6F636B006368537973556E6C04
:103CA8006F636B006368537973556E6C6F636B0059
:103CB80063685654446F5469636B49006368546879
:103CC80064446F446571756575654E65787449001F
:103CD8006368537973556E6C6F636B0063685379CF
:103CE80073556E6C6F636B006368537973556E6CB4
:103CF8006F636B0063685363685265616479490058
:103D080063685654446F53657449000063684D7482
:103D1800784C6F636B530000636853636852656146
:103D2800647941686561644900000000636854680B
:103D380064437265617465006368546864437265BE
:103D48006174655374617469630000006368486551
:103D5800617046726565000063684D7478556E6CD5
:103D68006F636B00636853636857616B6575705365
:103D780000000000636854686452656C656173658F
:103D88000000000063685468644578697453000053
:103D980063685265674E657874546872656164003B
:103DA80073745374617274416C61726D0000000029
:103DB8007374536574416C61726D00005F63746C59
:103DC800000000006F626E6F746966790000000081
:103DD80073647553746172740000000073647553E2
:103DE8004F46486F6F6B4900000000006D61696EB7
:103DF80000164030040444080C1014181C2021221A
:103E08000000000000000000811E0008C10B00082F
:103E1800D10A000840004000AC940020AC94002077
:103E280001000000BC940020030000000000000016
:103E3800310D00080000000010000000C4940020AC
:103E48000000000001000000000000000200000067
:103E58000000000081100008E10E0008400040004A
:103E6800D4940020E4940020010000000000000029
:103E78000300000000000000310D000800000000F1
:103E880010000000F4940020000000000100000071
:103E9800000000000200000000000000811000087F
:103EA800E10E000840004000049500201495002011
:103EB8000100000000000000800000004001000038
:103EC800050000000100000028410008280C01201E
:103ED800280C0120280C012028410008000000209F
:103EE8000000002000000020284100080000000019
:103EF8000000000000000000284100080000000049
:103F08000000000000000000284100080000000038
:103F18000000000000000000284100080000000028
:103F28000000000000000000284100080000000018
:103F38000000000000000000284100080000000008
:103F48000000000000000000E41100200101020050
:103F5800E411002003030400D125000861040008CF
:103F6800F1030008F11100088D000000783F0008F7
:103F780009028D000401008096080B00020202016C
:103F880000090400000102020104052400100105D3
:103F98002401000104240202052406000107058209
:103FA800031000FF09040100020A000000070501D0
:103FB8000240000107058102400001080B020202CD
:103FC8000201000904020001020201050524001093
:103FD8000105240100030424020205240602030744
:103FE8000584031000FF09040300020A000000070B
:103FF800050302400001070583024000010000009C
:10400800120000001040000812010002EF020140F7
:10401800501D186000020102030100000403090496
:1040280004000000244000080A00000024080020C2
:104038001600000030080020180000004808002082
:1040480022000000600800201E00000084080020F4
:1040580000000000F12200081124000801170008E0
:10406800F1150008F1160008E1150008E122000822
:0C40780001240008710E00080000000088
:1040840000040240FF7F0000000000000000024026
:10409400FF00000000000000010000000096000086
:1040A400000008000A0300000000000000000000F7
:1040B40016030000000000000000000000000000E3
:1040C40000000000000000001803000000000000D1
:1040D40000000000000000000000000000000000DC
:1040E40022030000000000000000000000000000A7
:1040F40000000000000000000000000000000000BC
:10410400000000001E03000000000000000000008A
:10411400000000000000000000000000000000009B
:044124000000000097
:0400000508000301EB
:00000001FF
