:020000040800F2
:1000000000040020010300080303000803030008A4
:1000100003030008030300080303000803030008A8
:100020000303000803030008030300084134000829
:100030000303000803030008030300080303000888
:100040000303000803030008030300080303000878
:100050000303000803030008030300080303000868
:100060000303000803030008030300080303000858
:100070000303000803030008030300080303000848
:100080000303000803030008030300080303000838
:100090000303000803030008030300080303000828
:1000A0000303000803030008030300080303000818
:1000B000A13F000803030008513F000803030008A4
:1000C00003030008030300080303000803030008F8
:1000D00003030008030300080303000803030008E8
:1000E00003030008030300080303000803030008D8
:1000F00003030008030300080303000803030008C8
:1001000003030008030300080303000803030008B7
:1001100003030008030300080303000803030008A7
:100120000303000803030008030300080303000897
:100130000303000803030008030300080303000887
:1001400003030008030300080303000871400008CC
:100150000303000803030008030300080303000867
:100160000303000803030008030300080303000857
:100170000303000803030008030300080303000847
:100180000303000803030008030300080303000837
:100190000303000803030008030300080303000827
:1001A0000303000803030008030300080303000817
:1001B0000303000803030008030300080303000807
:1001C00003030008030300080303000803030008F7
:1001D00003030008030300080303000803030008E7
:1001E00072B6394880F30888384880F3098838485F
:1001F0004EF60851CEF20001086040F20000CCF249
:1002000000004EF63471CEF200010860BFF34F8F4C
:10021000BFF36F8F40F20000C0F2F0004EF688513D
:10022000CEF200010860BFF34F8FBFF36F8F4FF026
:100230000000E1EE100A4EF63C71CEF200010860BB
:10024000062080F31488BFF36F8F04F0A9F902F041
:1002500077FF4FF055301F491B4A91423CBF41F890
:10026000040BFAE71C49194A91423CBF41F8040BC0
:10027000FAE71A491A4A1B4B9A423EBF51F8040B3F
:1002800042F8040BF8E700201749184A91423CBF96
:1002900041F8040BFAE704F03BF904F079F9144C47
:1002A000144DAC4203DA54F8041B8847F9E703F015
:1002B0004FFB114C114DAC4203DA54F8041B884734
:1002C000F9E704F05DB900000004002000080020F8
:1002D000000000080000002000040020F0D4020804
:1002E00000080020F80C0020F80C0020DCCB0020D7
:1002F000E0010008E0010008E0010008E00100085A
:100300006EE700F000F8FEE72DE9F04F2DED108AC2
:10031000C1F80CD0C3689D46BDEC108ABDE8F08FD3
:10032000002383F311882846A047002003F098F8A3
:10033000FEE703F0C5F800DFFEE7000081F00041B2
:1003400002E000BF83F0004330B54FEA41044FEABA
:10035000430594EA050F08BF90EA020F1FBF54EA55
:10036000000C55EA020C7FEA645C7FEA655C00F0F1
:10037000E2804FEA5454D4EB5555B8BF6D420CDDC2
:100380002C4480EA020281EA030382EA000083EA45
:10039000010180EA020281EA0303362D88BF30BDE5
:1003A00011F0004F4FEA01314FF4801C4CEA11313B
:1003B00002D0404261EB410113F0004F4FEA03339A
:1003C0004CEA133302D0524263EB430394EA050F25
:1003D00000F0A780A4F10104D5F1200E0DDB02FA94
:1003E0000EFC22FA05F2801841F1000103FA0EF228
:1003F000801843FA05F359410EE0A5F120050EF1EE
:10040000200E012A03FA0EFC28BF4CF0020C43FA1E
:1004100005F3C01851EBE37101F0004507D54FF02B
:10042000000EDCF1000C7EEB00006EEB0101B1F57B
:10043000801F1BD3B1F5001F0CD349085FEA3000C1
:100440004FEA3C0C04F101044FEA445212F5800FCC
:1004500080F09A80BCF1004F08BF5FEA500C50F169
:10046000000041EB045141EA050130BD5FEA4C0C4C
:10047000404141EB0101013C28BFB1F5801FE9D2A9
:1004800091F0000F04BF01460020B1FA81F308BFCC
:100490002033A3F10B03B3F120020CDA0C3208DD98
:1004A00002F1140CC2F10C0201FA0CF021FA02F173
:1004B0000CE002F11402D8BFC2F1200C01FA02F1E3
:1004C00020FA0CFCDCBF41EA0C019040E41AA2BF08
:1004D00001EB0451294330BD6FEA04041F3C1CDAD0
:1004E0000C340EDC04F11404C4F1200220FA04F0F0
:1004F00001FA02F340EA030021FA04F345EA03019A
:1005000030BDC4F10C04C4F1200220FA02F001FA5B
:1005100004F340EA0300294630BD21FA04F02946DD
:1005200030BD94F0000F83F4801306BF81F4801176
:100530000134013D4EE77FEA645C18BF7FEA655CE9
:1005400029D094EA050F08BF90EA020F05D054EABB
:10055000000C04BF1946104630BD91EA030F1EBFC0
:100560000021002030BD5FEA545C05D140004941C4
:1005700028BF41F0004130BD14F580043CBF01F5B7
:10058000801130BD01F0004545F0FE4141F470019D
:100590004FF0000030BD7FEA645C1ABF1946104678
:1005A0007FEA655C1CBF0B46024650EA013406BF79
:1005B00052EA033591EA030F41F4002130BD00BF38
:1005C00090F0000F04BF0021704730B54FF48064F5
:1005D00004F132044FF000054FF0000150E700BF76
:1005E00090F0000F04BF0021704730B54FF48064D5
:1005F00004F1320410F0004548BF40424FF00001C2
:100600003EE700BF42004FEAE2014FEA31014FEA04
:1006100002701FBF12F07F4393F07F4F81F0605153
:10062000704732F07F4208BF704793F07F4F04BF9E
:1006300041F40021704730B54FF4607401F000457B
:1006400021F000411CE700BF50EA010208BF7047DB
:1006500030B54FF000050AE050EA010208BF7047CC
:1006600030B511F0004502D5404261EB41014FF435
:10067000806404F132045FEA915C3FF4D8AE4FF03D
:1006800003025FEADC0C18BF03325FEADC0C18BF20
:10069000033202EBDC02C2F1200300FA03FC20FA71
:1006A00002F001FA03FE40EA0E0021FA02F11444BE
:1006B000BDE600BF70B54FF0FF0C4CF4E06C1CEAD7
:1006C00011541DBF1CEA135594EA0C0F95EA0C0F48
:1006D00000F0DEF82C4481EA030621EA4C5123EABB
:1006E0004C5350EA013518BF52EA033541F48011EA
:1006F00043F4801338D0A0FB02CE4FF00005E1FB9D
:1007000002E506F00042E0FB03E54FF00006E1FBE6
:1007100003569CF0000F18BF4EF0010EA4F1FF0429
:10072000B6F5007F64F5407404D25FEA4E0E6D4169
:1007300046EB060642EAC62141EA55514FEAC5207A
:1007400040EA5E504FEACE2EB4F1FD0C88BFBCF5F6
:10075000E06F1ED8BEF1004F08BF5FEA500E50F1A7
:10076000000041EB045170BD06F0004646EA01016D
:1007700040EA020081EA0301B4EB5C04C2BFD4EB9F
:100780000C0541EA045170BD41F480114FF0000E98
:10079000013C00F3AB8014F1360FDEBF002001F006
:1007A000004170BDC4F10004203C35DA0C341BDC80
:1007B00004F11404C4F1200500FA05F320FA04F052
:1007C00001FA05F240EA020001F0004221F0004186
:1007D00010EBD37021FA04F642EB06015EEA430EF9
:1007E00008BF20EAD37070BDC4F10C04C4F1200529
:1007F00000FA04F320FA05F001FA04F240EA0200DC
:1008000001F0004110EBD37041F100015EEA430EAC
:1008100008BF20EAD37070BDC4F1200500FA05F2CC
:100820004EEA020E20FA04F301FA05F243EA02034B
:1008300021FA04F001F0004121FA04F220EA02005A
:1008400000EBD3705EEA430E08BF20EAD37070BDA0
:1008500094F0000F0FD101F00046400041EB010180
:1008600011F4801F08BF013CF7D041EA060195F062
:10087000000F18BF704703F00046520043EB03031C
:1008800013F4801F08BF013DF7D043EA0603704709
:1008900094EA0C0F0CEA135518BF95EA0C0F0CD014
:1008A00050EA410618BF52EA4306D1D181EA03015A
:1008B00001F000414FF0000070BD50EA410606BF54
:1008C0001046194652EA430619D094EA0C0F02D199
:1008D00050EA013613D195EA0C0F05D152EA0336DE
:1008E0001CBF104619460AD181EA030101F00041FC
:1008F00041F0FE4141F470014FF0000070BD41F045
:10090000FE4141F4780170BD70B54FF0FF0C4CF41E
:10091000E06C1CEA11541DBF1CEA135594EA0C0F3D
:1009200095EA0C0F00F0A7F8A4EB050481EA030E8A
:1009300052EA03354FEA013100F088804FEA033371
:100940004FF0805545EA131343EA12634FEA02223F
:1009500045EA111545EA10654FEA00260EF0004100
:100960009D4208BF964244F1FD0404F5407402D252
:100970005B084FEA3202B61A65EB03055B084FEAE3
:1009800032024FF480104FF4002CB6EB020E75EBE0
:10099000030E22BFB61A754640EA0C005B084FEA08
:1009A0003202B6EB020E75EB030E22BFB61A754685
:1009B00040EA5C005B084FEA3202B6EB020E75EBD0
:1009C000030E22BFB61A754640EA9C005B084FEA48
:1009D0003202B6EB020E75EB030E22BFB61A754655
:1009E00040EADC0055EA060E18D04FEA051545EA44
:1009F00016754FEA06164FEAC30343EA52734FEAED
:100A0000C2025FEA1C1CC0D111F4801F0BD141EA65
:100A100000014FF000004FF0004CB6E711F4801FCA
:100A200004BF01430020B4F1FD0C88BFBCF5E06FAA
:100A30003FF6AFAEB5EB030C04BFB6EB020C5FEABA
:100A4000500C50F1000041EB045170BD0EF0004E0F
:100A50004EEA113114EB5C04C2BFD4EB0C0541EA41
:100A6000045170BD41F480114FF0000E013C90E63E
:100A700045EA060E8DE60CEA135594EA0C0F08BF02
:100A800095EA0C0F3FF43BAF94EA0C0F0AD150EA01
:100A900001347FF434AF95EA0C0F7FF425AF104694
:100AA00019462CE795EA0C0F06D152EA03353FF4BC
:100AB000FDAE1046194622E750EA410618BF52EA39
:100AC00043067FF4C5AE50EA41047FF40DAF52EA0D
:100AD00043057FF4EBAE12E74FF0FF3C06E000BFAA
:100AE0004FF0010C02E000BF4FF0010C4DF804CDB7
:100AF0004FEA410C7FEA6C5C4FEA430C18BF7FEA77
:100B00006C5C1BD001B050EA410C0CBF52EA430CA4
:100B100091EA030F02BF90EA020F0020704710F124
:100B2000000F91EA030F58BF994208BF90422CBFB3
:100B3000D8176FEAE37040F0010070474FEA410CAC
:100B40007FEA6C5C02D150EA013C07D14FEA430CCA
:100B50007FEA6C5CD6D152EA033CD3D05DF8040B3B
:100B6000704700BF8446104662468C46194663466D
:100B700000E000BF01B5FFF7B7FF002848BF10F144
:100B8000000F01BD4DF808EDFFF7F4FF0CBF012089
:100B900000205DF808FB00BF4DF808EDFFF7EAFF05
:100BA00034BF012000205DF808FB00BF4DF808EDC0
:100BB000FFF7E0FF94BF012000205DF808FB00BFB5
:100BC0004DF808EDFFF7CEFF94BF012000205DF83F
:100BD00008FB00BF4DF808EDFFF7C4FF34BF01204C
:100BE00000205DF808FB00BF4FEA4102B2F1E0438C
:100BF00024BFB3F5001CDCF1FE5C0DD901F0004C04
:100C00004FEAC0024CEA5070B2F1004F40EB830053
:100C100008BF20F00100704711F0804F21D113F17F
:100C20003872BCBF01F00040704741F480114FEAB8
:100C30005252C2F11802C2F1200C10FA0CF320FA41
:100C400002F018BF40F001004FEAC1234FEAD3235E
:100C500003FA0CFC40EA0C0023FA02F34FEA4303C8
:100C6000CCE77FEA625307D150EA01331EBF4FF051
:100C7000FE4040F44000704701F0004040F0FE406C
:100C800040F40000704700BF0000000000000000BA
:100C9000264B03EB80022DE9F041D468D3F86CE0D9
:100CA0006669D6E900128A422CD2451CB4F810C0FD
:100CB0000EEB05350EEB40178A1AD7F81839624546
:100CC00028BF62469BB2B2EB830F2CD832B3D6F862
:100CD0000880042AD8F800302B600AD9541F24F069
:100CE000030404344444434653F8041F29609C42DF
:100CF000FAD1D6E9001308EB02041A449142C6E97E
:100D00000124D9D8DEF83428012303FA00F022EABE
:100D10000002CEF834281846BDE8F08172B6044BC4
:100D2000044ADA62FEE70020BDE8F08128160020C0
:100D3000A41600206C510208000000000000000012
:100D400090F85C3003F01F02012A06D003F0600324
:100D5000202B0BD000221046704790F85D100B2915
:100D6000F4D10021C0E914118165F4E790F85D30F9
:100D7000212B0AD81F2BEDD9094B0365072200232D
:100D8000C0E91523012210467047222BE2D190F8CA
:100D9000603013F0FD0F0CBF01220022DBE700BF23
:100DA0001C080020000000000000000000000000FF
:100DB000022906D0032906D00129074818BF0020C0
:100DC000704706487047052A03D8054800EBC20063
:100DD00070470020704700BFD45502083C550208F8
:100DE000F4550208000000000000000000000000B0
:100DF000202383F31188104B5B6813F4006302D146
:100E000083F311887047F1EE103AEFF30983683BE2
:100E10004FF08071094AD961D2681A6683F3098854
:100E2000074A116892698968926891428CBF054AA5
:100E3000054A9A61704700BF00ED00E030EF00E026
:100E4000A416002033030008360300080000000049
:100E5000094A10B4D2E900344942201A08409842A5
:100E600005D3844203D35DF8044B506070470020E3
:100E70005DF8044B704700BFC81800200000000058
:100E800030B4202383F311880F4CD4E90035494254
:100E9000281A0840821A9A4214D3954212D36260EB
:100EA0000A4B1A689A4204D09969926889689142FB
:100EB00004D3002383F3118830BC704772B6044A10
:100EC000DA62FEE70020EBE7C8180020A416002035
:100ED0006052020800000000000000000000000056
:100EE000084B1A689A4204D09969926889689142BD
:100EF00003D3002383F31188704772B6024ADA6283
:100F0000FEE700BFA41600204852020800000000BF
:100F10000E4A0F4B52685B6F816830B4D31AD0E928
:100F20000445C2685B1A01324168C260E418026875
:100F3000836045F100058B4288BF43609342C0E95E
:100F4000044538BF036030BC704700BF001000E0AC
:100F5000A4160020000000000000000000000000B7
:100F6000014B5B6883607047001000E000000000E8
:100F700090F8203083B10F2B0ED000228168094BEE
:100F800080F820201B689A688A42FBD85A68C0E91A
:100F9000003210605860704772B6024B024ADA6243
:100FA000FEE700BFA4160020EC520208000000007B
:100FB00090F8203083B10F2B0ED000228168094BAE
:100FC00080F820201B689A688A42FBD25A68C0E9E0
:100FD000003210605860704772B6024B024ADA6203
:100FE000FEE700BFA4160020C8520208000000005F
:100FF00038B50368984215D004466FF001051A68A9
:101000002260546093F82020042A184604D072B657
:10101000054B064ADA62FEE75D62FFF7C9FF236807
:101020009C42ECD138BD00BFA416002090520208AB
:10103000F8B50468A04220D007460D46002604E01B
:101040000B2A1BD02468A74217D0D4E903322B43C4
:101050001542E360F6D0D4E90103416B90F82020FB
:101060000B430A2A4363EBD1426A1342EAD0466239
:10107000FFF79EFF2468A742E7D1F8BD426A32EA33
:101080000303DFD1F3E700BF000000000000000011
:1010900008B5202383F3118890F82030072B0DD852
:1010A000DFE803F0110C0C1508040C08426A936881
:1010B00001339360D0E9003213605A604FF0FF3380
:1010C0004362FFF775FF002383F3118808BD436A6D
:1010D00000221A60F2E700BF0000000000000000DC
:1010E000034A516853685B1A9842FBD8704700BFA7
:1010F000001000E000000000000000000000000000
:10110000FEE700BF0000000000000000000000003B
:1011100000EB810330B4DC6862691368D360F3B913
:10112000C26E02EB41134FF40020C3F8100923688C
:1011300003F00303012B2AD008B202EB4010012375
:10114000D0F8004944F00444C0F80049D2F834080B
:1011500003FA01F1014330BCC2F83418704719B9E1
:10116000402B84BF40231360258AC26E681E18443A
:10117000B0FBF5F002EB411543EAC04343F00053E6
:10118000C5F81039236803F00303012BD4D1D2F83A
:10119000083813F4807F02EB411308B2D3F80049FA
:1011A00014BF44F0805444F00054C3F80049C4E72D
:1011B000204AF8B5D66E06EB40130446D3F808591A
:1011C000C3F80859E80703D5D6F81038D90708D46A
:1011D0002B0605D5D6F834280123A340134215D198
:1011E000F8BD02EB8403D86843691F68D9688F4251
:1011F00011D3138987680121A14023EA01031381D8
:10120000002FE5D010462146B847E1E72046BDE86B
:10121000F840FFF73DBDC91B0027C3E90017202395
:1012200083F3118810462146FFF772FF87F3118878
:10123000CEE700BF281600200000000000000000DC
:1012400000EB810330B4DD68AB691C68DC6019B960
:10125000402C84BF40241C606B8AC06E2D685A1ECF
:101260002244B2FBF3F202FB03F3033323F0030344
:1012700043EAC24300EB411405F0030243F0C043CC
:10128000012AC4F8103B0AD009B200EB411130BC6E
:10129000D1F8003B43F00443C1F8003B7047D0F85D
:1012A000083800EB411213F4807FD2F8003B14BFE2
:1012B00043F0805343F0005309B2C2F8003BE4E727
:1012C0002DE9F041244FFE6E06EB40130446D3F89F
:1012D000085BC3F8085B280703D5D6F8143819074C
:1012E00031D4EA072DD5D6F81438DB0729D507EB1A
:1012F0008403D9685CB98A69488A5568B5FBF0F3FC
:1013000000FB13531BB91068D36898420DD37B8937
:10131000CD680122A24023EA02037B818DB12146E0
:101320002B460D48BDE8F04118471B1AC2E90034AE
:10133000202383F3118808482146FFF781FF84F3B7
:101340001188BDE8F08107EB84032146DB6838464D
:101350005B689847C5E700BF281600200000000022
:101360002DE9F04100234FF00F0E4FF0010C032741
:1013700007E0056A25EA04040462490827D09200C0
:10138000013303F007045D00A40011F0010F0CFA13
:1013900003F807FA05F50EFA04F4EED0466826EADB
:1013A00008064660866826EA05068660C66826EA5C
:1013B0000506C660066826EA05051543072B056085
:1013C000D7D9456A490825EA04044462D7D1BDE863
:1013D000F08100BF000000000000000000000000DD
:1013E000F0B4068901248C401FFA84FC34400CD1EF
:1013F00000EB810546EA0C06ED6806816D69C5E9DA
:101400000034AA60F0BCFFF783BE72B6014B024AFB
:10141000DA62FEE7A4160020FC510208000000007A
:1014200038B590F84C300546152B0CD8DFE803F0A2
:10143000100B0B0B0B0B150B0B1010100B0B0B0BDE
:101440000B0B0B0B3A2B72B61C4B1D4ADA62FEE7F4
:1014500072B61A4B1A4ADA62FEE7C36E4168D3F8D5
:1014600000290C6842F40012C3F80029D3F8002BBD
:1014700042F40012C3F8002B0CB10621A04706234A
:1014800085F84C3038BD0B2380F84C30202383F393
:10149000118800231A461946FFF7A2FF002383F3A1
:1014A000118838BDC3689B695B68002BEAD1836DE6
:1014B00003B19847002385F84C3038BDA4160020AE
:1014C0003052020800000000000000000000000090
:1014D000F0B4468901248C401FFA84FC34400CD1BE
:1014E00000EB810546EA0C06ED684681AD69C5E969
:1014F0000034AA60F0BCFFF7A3BE72B6014B024AEB
:10150000DA62FEE7A4160020CC51020800000000B9
:1015100038B590F84C300546152B2DD8DFE803F090
:10152000312C2C2C2C2C362C2C0B1C4C2C2C2C2CFD
:101530002C2C2C2C313190F8632090F86240436DB4
:1015400044EA0224A34207D2C268128AB3FBF2F42F
:1015500002FB1434002C36D0142385F84C302023A1
:1015600083F3118800231A4619462846FFF7B0FF77
:10157000002383F3118838BD72B61A4B1A4ADA6217
:10158000FEE772B6174B184ADA62FEE7C36E41688F
:10159000D3F800290C6842F40012C3F80029D3F8EC
:1015A000002B42F40012C3F8002B0CB10621A04717
:1015B000062385F84C3038BD836D03B1984700236E
:1015C00085F84C3038BD202383F31188234622460A
:1015D0002146FFF705FF84F311880A2385F84C3074
:1015E00038BD00BFA41600202452020800000000ED
:1015F0000378042B38D1016F83680A68F0B403F0D4
:101600000113426700228F688360C0E90422C0E9A9
:10161000062202624FF0FF34C06E00E0324600EB5B
:1016200042110B46D1F80059002D02F1010605DAEE
:10163000D1F8005945F08045C1F80059D1F8005B58
:10164000002D05DAD1F8005B45F08045C1F8005B5C
:10165000BA42C3F80849C3F8084BDFD14FF0011371
:10166000F0BCC0F81C38704772B6024B024ADA620E
:10167000FEE700BFA4160020B451020800000000DD
:10168000704700BF000000000000000000000000E4
:1016900038B5037D044613B190F84C308BB9201D4A
:1016A00001250221FFF7C4FC04F10C002575FFF7AA
:1016B0009FFC84F84C5004F14400BDE83840FFF72B
:1016C00097BC38BD000000000000000000000000D2
:1016D0000A68202383F31188037A013B012B1DD86C
:1016E0000B7902EB830318624B790D3342F8230028
:1016F0008B7913B102EB830210620D4BC0F88C148E
:101700001A6802219A42017204D099699268896824
:10171000914208D3002383F31188704772B6044BBB
:10172000044ADA62FEE772B6034ADA62FEE700BFF5
:10173000A4160020A45302083C5202080000000036
:10174000034670B41A4A43F8042B1A4A436000F166
:101750007C0400F28C4300F10C01C26300F521729D
:10176000C0E90311C0E907440121C0E91522124E66
:10177000C36500F144050023046342624FF48274A0
:10178000826602228361C0E91155C0E90D33C0E9C8
:101790001B330064806746670172017580F84C1046
:1017A00084620466C2620265426670BC704700BF14
:1017B0002456020831190008711B000800000000BF
:1017C00009B10020704772B6014B024ADA62FEE7A7
:1017D000A416002090530208000000000000000042
:1017E00038B5D0F88C140C682378042B02D1037A16
:1017F000022B01D0012038BD0A796589012303FA43
:1018000002F22A42F6D1D0E90725AA4208D02046A2
:10181000497904324FF48073FFF75AFE002038BD37
:1018200080690028F3D0E5E7000000000000000018
:101830000D3138B550F8214094B1202383F311883D
:10184000D4F88C241368527903EB8203DB689B691C
:101850005D6835B92046FFF7C3FF002383F3118885
:1018600038BD04216018FFF7E3FBD4E90732934247
:101870001CD01D60D4E90910A269034401328B42D7
:10188000A261E36101D3236BE361E06804F10C031F
:101890008342DFD00268E260536090F82030042B6E
:1018A0000CD100234362FFF783FBD3E7A269002A30
:1018B000DFD072B6044B054ADA62FEE772B6024B1D
:1018C000034ADA62FEE700BFA416002008510208AE
:1018D000905202080000000000000000000000001C
:1018E00038B5036B002504468561C0E90733C0E9BC
:1018F0000D550C30FFF77CFBD4E9192304F14400AB
:10190000C4E915332265C4E91B552575FFF770FB43
:10191000201D84F84C500121FFF78AFB2046BDE8CA
:101920003840FFF75DBF00BF00000000000000006E
:10193000406BFFF755BF00BF000000000000000033
:1019400010B4D0E9014224EA0103214002F110045D
:10195000A34000685DF8044B9140194381617047D2
:10196000C368BBB1036910B484691960C169C268F6
:101970000B44A342036124BF436A0361013A036B32
:10198000C2600022826213B15DF8044B18475DF813
:10199000044B704772B6024B024ADA62FEE700BFA0
:1019A000A4160020105202080000000000000000F1
:1019B000D0E904239A4204D0184650F8043B0B6047
:1019C0007047C268002AF7D000207047000000006E
:1019D0002DE9F04100EB810382B01E6AEEB10446AE
:1019E0000D46202383F3118800EB8107301D082169
:1019F000FFF71EFBFB685B691B688BB906F14400AF
:101A000001A9FFF7D5FF024660B3019B2946204696
:101A1000FFF7E6FC002383F3118802B0BDE8F081F4
:101A2000D6E915239A422DD0D6E91710326D03441A
:101A300001328B423265B36501D3B36EB365706C0E
:101A400006F144088045DBD003687364C3F8048062
:101A500090F82030042B1DD100234362FFF7A8FA31
:101A60004046CDE7FB685A691268002AD2D01B8A2B
:101A7000013B1340CED1294604F15C022046FFF71A
:101A8000AFFCC7E7326D002ACED072B6044B054AD0
:101A9000DA62FEE772B6024B034ADA62FEE700BF83
:101AA000A41600209C510208905202080000000079
:101AB000D0F88C2413681978042937D110B5017A2D
:101AC000022982B0044601D002B010BD11791A89F2
:101AD00001238B401342F7D1D0E915329342F3D161
:101AE000026D002AF0D0C26E002AEDD0043AD21A5C
:101AF000EAD01A60D4E9171003448B42226D636563
:101B000024BFA36E6365013A00232265E36601A941
:101B100004F14400FFF74CFF024640B1D4F88C04B6
:101B2000019B01790068FFF75BFCCDE7704772B657
:101B3000014B024ADA62FEE7A4160020B053020805
:101B400008B5202383F311880448FFF7B1FF044848
:101B5000FFF7AEFF002383F3118808BD080D0020B6
:101B600098110020000000000000000000000000AC
:101B700010B5446BD4F88C2413681978042982B00A
:101B800002D1217A022901D002B010BD11791A893F
:101B900001238B401342F7D101A904F14400FFF760
:101BA00007FF024638B1D4F88C04019B0179006824
:101BB000FFF716FCE8E772B6014B024ADA62FEE76D
:101BC000A416002098530208000000000000000046
:101BD000C368B3B110B4D0E906144369C2682344A2
:101BE0008B42436124BF436A4361013A036BC26085
:101BF0000022826213B15DF8044B18475DF8044B74
:101C0000704772B6014B024ADA62FEE7A416002062
:101C10003851020800000000000000000000000031
:101C20004FF08043DA68920701D55863704772B667
:101C3000014B024ADA62FEE7A41600208453020830
:101C400038B5134D2B68AA69AB4204461ED099687B
:101C500093688B4216D3A16800209942606204D831
:101C60002046BDE83840FFF7A3B91046FFF780F9DA
:101C7000012384F820300146AC612046BDE838409D
:101C8000FEF742BB72B6034BEB62FEE79368E2E7F6
:101C9000A4160020385302080000000000000000D5
:101CA000084B99691A6810B481F820001068186010
:101CB0000124436082F820405DF8044B9A6110468D
:101CC000FEF722BBA4160020000000000000000068
:101CD0002DE9F0414B1C86B055D0494D2F460229C5
:101CE00057F81C4FAB6905934FF08042064638BF4A
:101CF00002214448536A0490BC424CD0A86A1B1A83
:101D0000C91834D3A2682468A368891A99420DF1CE
:101D1000040806D9444532D02468C91AA3689942F8
:101D2000F8D86368CDE90143C3F80080C4F80480A3
:101D30000391A368591A4FF0FF33A1606B623046DC
:101D4000FFF7AEFF049B6BB1EB69434535D0DDE98E
:101D500001321360019BBB425A6003D09A68039919
:101D60000A449A60AB69586A06B0BDE8F081A3687E
:101D70009942CBD20844FFF753FFA368C6E772B677
:101D8000214BEB62FEE71E4DFFF78AFFAB69586AF5
:101D900006B0BDE8F081AB620391D06801940DF10B
:101DA000040810F00200C5E90788029420D1194404
:101DB000022351631061D360C1E7019BEB610022F4
:101DC000BB425F60049217D09A680399A86A0A44DC
:101DD0004FF080419A604B6A191A8A42C2D9C31ADD
:101DE0001344012B98BF8A1C1044FFF719FFB9E771
:101DF00072B6064BEB62FEE74FF08043DA60B1E764
:101E0000A416002091100008D4520208745302084E
:101E100008B50146202383F311880820FFF758FFF7
:101E2000084B1A689A4204D099699268896891426D
:101E300003D3002383F3118808BD72B6024ADA6225
:101E4000FEE700BFA4160020485202080000000070
:101E500070B5154E04460D460CE0237ACBB9DDB1C2
:101E6000B3696268C3E9004213606360FFF730FF43
:101E700000280DDBE36829460420002BEDD0E36841
:101E80006BB163691A6804331A44C4E90A3200204A
:101E900070BD6FF0010070BD4FF0FF3070BD72B6C5
:101EA000014B024ADA62FEE7A41600201C51020828
:101EB00038B50446202383F31188836ADBB113F815
:101EC000015BE26AA362934211D2144B1A689A42F0
:101ED00004D0996992688968914204D3002383F3FE
:101EE0001188284638BD72B60D4ADA62FEE72046F0
:101EF000FFF76EFEE9E7FFF7ABFF054608B9A36AF7
:101F0000DDE7064B1A689A42E8D0996992688968B9
:101F10009142E3D272B6024ADA62FEE7A4160020CA
:101F2000A4520208000000000000000000000000B1
:101F30000C30FFF7BDBF00BF000000000000000034
:101F40000C304FF0FF31FFF7B3BF00BF00000000BF
:101F500070B5154E04460D460CE0237ACBB9DDB1C1
:101F6000B3696268C3E9004213606360FFF7B0FEC3
:101F700000280DDBE36829460420002BEDD0E36840
:101F80006BB12369E1691A1D0B44C4E90A230020DF
:101F900070BD6FF0010070BD4FF0FF3070BD72B6C4
:101FA000014B024ADA62FEE7A4160020E051020863
:101FB00038B50D460446202383F31188836AEBB1BC
:101FC0001D70D4E90A3201339342A36210D2174B39
:101FD0001A689A4204D0996992688968914203D339
:101FE000002080F3118838BD72B6114ADA62FEE72C
:101FF000E16920460439FFF7B3FCE8E71146FFF733
:10200000A7FF08B9A36ADBE7084B1A689A4204D015
:10201000996992688968914203D3002383F31188F8
:1020200038BD72B6024ADA62FEE700BFA41600208D
:10203000A4520208000000000000000000000000A0
:102040004430FFF7B5BF00BF0000000000000000F3
:1020500044304FF0FF32FFF7ABBF00BF000000007D
:102060000EB42DE9F04F9E4B9E4E86B010AA03F1A0
:10207000FF3B0292009200254D210BE03268994807
:10208000D26801359B4690475B4613F8011B002937
:1020900000F087802529F1D19BF801202D2A04BF6B
:1020A0000BF102034FF0010E1A7818BF4FF0000E2B
:1020B0002B2A03BF5A7801215B180021302A03BF65
:1020C00017465A780133202703F1010B002A68D004
:1020D000002405E01BF8012B03EB4004002A60D02C
:1020E000A2F13003DBB2092B04EB8400F2D92E2AD3
:1020F00041D0002002F0DF034C2B58D0A2F1440C59
:10210000BCF1340F00F26181DFE81CF029015F01AE
:102110005F015F015F0129015F015F015F015F01F5
:102120005F0163015F015F015F015F015F01E70024
:102130005F015F0191005F015F015F015F015F016E
:102140005F015F015F015F015F01120129015F0112
:102150005F015F015F0129015F015F015F015F01B5
:102160005F0163015F015F015F01EE005F01E70056
:102170005F015F0191009BF8002092B12A2A00F0D4
:102180002B810BF1010B0020A2F13003DBB2092BF4
:1021900000EB800CAED81BF8012B03EB4C00002A9F
:1021A000F2D1284606B0BDE8F04F03B070471BF8E7
:1021B000012B002AF5D0A2F14403342B00F2058153
:1021C000DFE813F0CD000301030103010301CD009B
:1021D00003010301030103010301070103010301DB
:1021E0000301030103018B00030103013500030117
:1021F00003010301030103010301030103010301BF
:102200000301B600CD000301030103010301CD006A
:10221000030103010301030103010701030103019A
:102220000301920003018B000301030135004FF00D
:10223000100C009A52F8043B00920DF1170000E0D8
:1022400040461946B3FBFCF30CFB131909F13002AD
:10225000392AC8BF09F13702D2B2614500F1FF380F
:1022600000F8012CECD203AB0DF11701A1EB08082B
:102270009C4601E010F8012B0CF8012B8842F9D1A3
:10228000A4EB08029A4608F1FF3822EAE274BEF194
:10229000000F04D1002AC4F1000400F3A680B8F1B5
:1022A000000F0CDB08F10109D14433681AF8011B57
:1022B000DB6830469847CA45F7D101354544002CC4
:1022C0003FF4E2AEA04633683946DB6830469847B3
:1022D000B8F10108F7D12544D6E64FF00A0CA8E77B
:1022E00079500208080D0020009B53F804ABBAF1A6
:1022F000000F00F0B9809AF80020002840F0958087
:10230000002A00F0968047F6FE70D04601E0C142F8
:1023100005D418F8012FAAEB0801002AF7D1A8EB81
:102320000A08A4EB0802009308F1FF382027ACE765
:10233000009A52F8041B8DF80C10631E009220279F
:1023400023EAE374BEF1000F04D1002BC4F10004B2
:1023500000F385804FF000080DF10C0AA2E7009B06
:1023600053F8040B0093002871DB00296CD02B2359
:102370008DF80C300DF10D0103AB01F10B02DFF80C
:10238000089101929446A9FB0082D20802EB820ACE
:102390009046A0EB4A0230328246D2B2BAF1090F1F
:1023A0000CF8012D4046EEDC0198A0EB0C0008442F
:1023B00001E01CF8012F01F8012B8142F9D1C91A63
:1023C000621A01F1FF389A465FE78DF80C20631E10
:1023D000B6E74FF0080C2CE7009B9BF8012053F860
:1023E000040B00930BF1020B84E6A1469AF800104F
:1023F0002D290ED04C4633683946DB683046984765
:102400000134F8D1B8F1000FA5EB0905BFF64AAFCA
:102410003AE6302FEED133681A48DB6898470AF164
:10242000010A013508F1FF38E4E712B101387FF500
:102430006CAFBEF1000F1DD1002CC4F10009009358
:102440001BDC4C4620273AE703AB194695E72D23C2
:102450008DF80C3040420DF10D0103AB8DE7A14624
:10246000F0460DF10C0AC1E7DFF820A000283FF488
:102470004AAFDBE70093202721E720274FF0FF3802
:10248000B4E700BF080D0020CDCCCCCC8C500208A6
:102490006F49704E704D714C2DE98848704B8B60C0
:1024A0004FF400434FF480424B8001230B708A802D
:1024B0008B716C4B6C4902221A800B78002B00F058
:1024C0008680684B69481F4602881B889A427ED2E4
:1024D0004FF0000981F80090A0F80090202383F3CA
:1024E00011883B88002B5CD01FFA89F3584A03EB14
:1024F000430302EB430112F81380B8F1000F6AD0D6
:102500005B4BB1F802A01A78B1F804801F4642B9BB
:102510005848D0E901130068994001233B70FEF749
:102520001FFF00233380B8F1000F32D0D3465FEA9B
:10253000DA3A08F1FF380BF1010208BF4FF480636B
:1025400012FA88F843EA8A6A4B485946FFF7F8F9C5
:102550004A4B4FF400421A832A830823C4F818A078
:1025600000BF013B9BB2002BFAD13388414A0133B3
:10257000126833804FF4004312696B834FF4806319
:10258000238300BF00BF00BF00BF0BF1010BD84584
:10259000DAD1344B09F101091A881FFA89F39A42FA
:1025A000A2D8374A1368934205D0354A9B6892698E
:1025B00092689A4247D3002383F3118842F2107045
:1025C000FFF726FC28490B78002B7FF47AAF264AC8
:1025D00000231370F2E7B1F802A091F804B0264886
:1025E0005146FFF7ADF9254B4FF400425A83204A7C
:1025F00013784BB11F4882F80080D0E90113012203
:1026000000689940FEF7ACFE59461A48FFF798F962
:102610004FEADA334FF400419A0629830BB942F4AA
:102620008062A261082300BF013B13F0FF03FAD1CF
:102630004FF400424FF480636A83238300BF00BFDE
:1026400000BF00BFA5E772B60D4A0E4BD362FEE78E
:1026500080400020D2180020000402400008024000
:1026600000C00040B0B50020F0180020D0180020B5
:10267000180800200C08002000080020000002407C
:10268000A41600207852020800000000000000009C
:1026900080B51D4A1D4B92691D49916182B001AA06
:1026A0001C4C1D4DDFF880801C4F1D4E1A603846B3
:1026B000414602F007F803F045FA30460FF078F98A
:1026C00003E041F28830FFF7A3FBD4F88C341B6899
:1026D0001B78042BF5D12B78012B0AD10FF07EF853
:1026E0000028F8D00F490B48FFF7BAFC02F066F952
:1026F000DDE70FF0C1F80028EDD00A490548FFF7E3
:10270000AFFC02F05BF9D2E7A41600207C40002069
:1027100094500208080D0020D8C800206C19002031
:10272000A4500208785002087C40002000000000FD
:1027300070B5164B90B003F13C04684606A90BAA8D
:102740001D785E8800F8015B063333F8025C21F8DF
:10275000026BA34222F8025BF2D169460A2005F01F
:10276000ACFB06A903461420039305F0A6FB0BA9B6
:1027700003461420049305F0A0FB03A9034603209D
:1027800005930AF0EBFC10B070BD00BF8040002044
:102790000649074A074B10B4012400200C705DF86D
:1027A000044B1080188007F0FCBB00BFF01800201D
:1027B000D0180020D2180020000000000000000007
:1027C0000D4B1A7810B54AB90C48D0E901410068A0
:1027D00004FA01F101241C70FEF7C2FD084C0949FE
:1027E000094A0A4B00202070BDE810400880108084
:1027F000188007F0D6BB00BF180800200C08002086
:10280000F0180020B0B50020D0180020D218002009
:1028100038B5C5070C460AD4810703D1154B0268A9
:102820009A4204D0BDE83840002007F0BABBE20766
:1028300005D4A307F6D10F4B22689A42F2D104F0D7
:102840003FFD0D4D034620461C4604F039FD2B8804
:102850000A4A03EB430101332B8002EB41030125BC
:10286000988002F811505C800020BDE8384007F0E5
:1028700098BB00BFCC6B0208B0B5002080400020A0
:10288000F8B5C5070C460AD4810703D1154B026879
:102890009A4204D0BDE8F840002007F082BBE2076E
:1028A00005D4A307F6D10F4B22689A42F2D104F067
:1028B00007FD0D4E0D4D034620461C4604F000FD5D
:1028C000328802EB42035F00013205EB4303C1B2E1
:1028D00032800022EA555C8099800020BDE8F840F3
:1028E00007F05FBBCC6B0208B0B500208040002031
:1028F00000B50C4B85B0186807F0D8FB0A4B019067
:10290000186807F0D3FB094B0290186807F0CEFB5C
:1029100001A90346032003930AF020FC05B05DF8EB
:1029200004FB00BF107AFF1F147AFF1F187AFF1FE5
:1029300070B590F84C30044613B1002380F84C3049
:1029400004EB81016268CB681B6A19685B682366C7
:10295000E16593682BB32046984710B3636D94F8F4
:102960005C0094F8631094F8622042EA01229A42D3
:102970003CBF62651346020600F1D080002B00F0D8
:102980008780152384F84C30202383F3118800219D
:10299000D4E914232046FEF79BFD002383F311881E
:1029A00070BD94F85C0010F060061CD194F85D20B6
:1029B00000F07F0343EA022340F20232934200F028
:1029C000FD8044D8B3F5807F00F00F8122D9B3F5A4
:1029D000817F00F01981B3F5407F04D194F85E3017
:1029E000012B00F0BC80E26ED2F80039616843F43C
:1029F0000013C2F80039D2F8003B0D6843F400130D
:102A0000C2F8003B15B106212046A847062384F8EA
:102A10004C3070BD012B59D0022B49D194F9601074
:102A200094F86020002902F00F01B4BF48315831FA
:102A3000E26E490151580D04D6D589024CBF914A26
:102A4000914A226502210022C4E9151289E7B3F5F3
:102A5000006F00F0AC8040D9B3F5106F32D123780D
:102A6000042B00F0868094F85E304BB1626884F8E5
:102A7000673004212170136813B102212046984762
:102A80000023C4E9143394F85C00A365030656D40C
:102A90000B2384F84C30202383F3118800231A463B
:102AA00019462046FEF79CFC002383F3118870BD75
:102AB000002B98D1022204F16401A365C4E9141229
:102AC00013464EE740F6024293428CD16F4B23658A
:102AD00000220223C4E9153243E7B3F5A06F5CD0AE
:102AE000A3F5C063012B3FF67EAF94F861006168E7
:102AF00094F860304D6894F85E2094F85F1043EAD3
:102B000000232046A84700283FF46DAFD0E90032EB
:102B100094F85C00A665C4E9142322E77BB109237D
:102B200084F84C30202383F311880021D4E9142346
:102B30002046FEF755FC002383F3118870BD142353
:102B400084F84C30202383F3118800231A46194659
:102B50002046FEF7BDFC002383F3118870BDB4F856
:102B60006430266543F00203C4E91566A4F86430B6
:102B70008CE7202383F311882046FEF739FD86F386
:102B800011880321636884F8676021701B68002B3B
:102B90003FF469AF2046984765E7B4F85C30B3F579
:102BA000A06F48D00023C4E91433A3656EE704F195
:102BB00067020123C4E91423A665D2E694F85E30C7
:102BC000002B7FF410AF94F8603013F00F02E9D0BF
:102BD00013F0800FE36E03EB421344D1D3F8002BC4
:102BE00042F40012C3F8002BDCE794F85E30012BAE
:102BF0007FF4F9AEB4F86430266523F00203C4E92B
:102C00001566A4F8643041E794F85E30002B7FF439
:102C1000EAAE94F8603013F00F02C3D013F0800FC7
:102C2000E36E03EB421325D1D3F8002B22F40012FC
:102C3000C3F8002BB6E794F85E10E26E84F86610D5
:102C4000D2F80038656823F4FE632D6843EA011367
:102C5000C2F8003825B120460121A84794F85C004D
:102C6000032323709EE7D3F8002942F40012C3F82F
:102C7000002997E7D3F8002922F40012C3F80029AD
:102C800090E700BF98540208BC530208CC560208D3
:102C90002DE9F04F83B005460C46934601934FF063
:102CA000200888F31188A86A344F0026B14600280E
:102CB00035D0EB6AABEB06021B1A9A4228BF1A46C4
:102CC000402A924632D9214604F1400E0C684A68E7
:102CD0008B68D1F80CC0C0F80CC01031714504608D
:102CE0004260836000F11000F0D1AB6AEA6A4033C1
:102CF0009A420C4606F14006AB6222D93B68BB42C1
:102D000004D0BA699B6892689A4220D389F31188EB
:102D10005E452BD288F31188A86A0028C9D1019991
:102D20002846FFF715F9B0B9A86AC2E721460EF0A8
:102D300059FEAB6AEA6A53449A4256445444AB6221
:102D4000DCD8E96928460439FEF70AFED6E772B6F0
:102D50000B4BFB62FEE73B68BB4204D0BA699B6841
:102D600092689A4206D3002383F31188304603B059
:102D7000BDE8F08F72B6024BFB62FEE7A41600209E
:102D8000A452020800000000000000000000000043
:102D90004430FFF77DBF00BF0000000000000000CE
:102DA00044304FF0FF33FFF773BF00BF0000000057
:102DB0002DE9F04F83B005460F46934601934FF03F
:102DC000200989F31188A96ADFF8E0800026B2465D
:102DD000002937D0EB6AABEB06045A1A944228BF9D
:102DE0001446402C35D901F1400E3B460C6848682A
:102DF0008A68D1F80CC0C3F80CC0103171451C6052
:102E000058609A6003F11003F0D1AB6AEA6A40336C
:102E10009A4207F1400706F14006AB6225D9D8F87F
:102E20000030434505D0D8F818209B6892689A4234
:102E30001FD38AF311885E452DD289F31188A96AC0
:102E40000029C7D101992846FFF702F8B0B9A96A4D
:102E5000C0E7224638460EF0C5FDAB6AEA6A234455
:102E60009A4226442744AB62D9D82846FEF7B0FEE2
:102E7000D5E772B60C4BC8F82C30FEE7D8F8003016
:102E8000434505D0D8F818209B6892689A4206D32B
:102E9000002383F31188304603B0BDE8F08F72B68B
:102EA000014BC8F82C30FEE7A4520208A4160020FB
:102EB0000C30FFF77DBF00BF0000000000000000E5
:102EC0000C304FF0FF33FFF773BF00BF000000006E
:102ED0000378042B40F083802DE9F04700EB810656
:102EE0008A46F3680FB223B172B65E4B5E4ADA626D
:102EF000FEE75469F2601CB123606360A360E36085
:102F0000936923B100221A605A609A60DA60F3680C
:102F1000C46E1D68996905F003056A1E022A98BFF0
:102F2000AD0404EB4A124FF0000C98BF05F1805538
:102F3000C2F810CB8CBF4D4D05F500454FEA4A1C39
:102F4000002951D0B3F812E00AF1580252014EEABA
:102F50000501A1500AF11008D4F81C18012202FA48
:102F600008F20A43C4F81C28596904EB0C024FF01C
:102F7000000EC2F810E900294BD01A8A9F8B9308E3
:102F8000D0E91C12012F88BF7B439F184767486810
:102F9000874261D80AF13F0042EA034304EB800014
:102FA0004FEA8A1242F020024360226123699A06A6
:102FB000FCD41220FEF794F8F3681B8A0AF1480249
:102FC00043EA8A5352011D43A5500123D4F81C281B
:102FD00003FA0AF11143C4F81C18BDE8F08772B671
:102FE000204B214ADA62FEE704EB47120AF110098E
:102FF000D2F8001B21F40041C2F8001BD4F81C28B1
:103000004FF0010E0EFA09FE22EA0E02C4F81C2847
:10301000AAE70AF13F0204EB82024FEA8A1314483E
:10302000506043F02003236123699B06FCD404EB2A
:1030300047171220FEF754F8D7F8003923F400435D
:10304000C7F80039D4F81C38012202FA0AF123EA41
:103050000101C4F81C18C0E772B6024B054ADA62D7
:10306000FEE700BFA416002088510208008000106F
:10307000000400025051020800000000000000009F
:1030800070B5052910D8DFE801F0030F27030310FE
:10309000202383F311882348FEF7FAFA2248FEF72B
:1030A000F7FA002383F3118870BD202383F311887E
:1030B0001C4E1D4D301D0121FDF7BAFF0024281DB7
:1030C0000121347586F84C40FDF7B2FF2C7585F868
:1030D0004C4084F3118870BD0546202383F311888A
:1030E0000478042C04D0032CDBD1FEF781FAD8E756
:1030F0000E4A0221FFF7ECFE28460D4A0121FFF798
:10310000E7FE214628460B4AFFF7E2FE0A4A284618
:103110000321FFF7DDFE0348FEF7E2FB0248FEF75E
:10312000DFFBBEE7080D002098110020FC530208C9
:1031300020540208445402086854020800000000A9
:10314000864A87481369874943F0FF03F0B4136147
:103150001369854C854D864E23F0FF031361136977
:10316000136B43F0FF031363136D43F0FF03136509
:103170004FF0FF370023D2F850C06360A760E560CE
:103180004FF4FE4565617B4D236265627A4D256093
:103190007360B7604FF0AA37F7604FF0553773612F
:1031A000336273623760754E43608660744EC660EA
:1031B0004EF6FF7646614FF0887603624362066002
:1031C00070484B606FF440168E60C8604FF6FF7613
:1031D00077204E616C4D0B6248624FF420200860EE
:1031E00004F5A05469496B606948A960EF606E619D
:1031F0002B626B622B60674D6360A560E760666160
:10320000236263622360644C4360644984604FF4CA
:103210008854C760624D466103624362046061483E
:103220004B600F248C60C8604FF080544FF44040D6
:103230004E610B624B620B6014642860136843F0AC
:103240000103136013689907FCD59168434B21F083
:10325000030191609A6812F00C02FBD118683F4993
:1032600000F0F90018609A601A6842F4A0221A600F
:103270000B689B03FCD54A6F384B42F001024A674A
:103280005A6F9707FCD5484A5A601968444A41F07A
:103290008071196053685E04FCD51168404B41F49D
:1032A000803111605A68D503FCD51A683C4942F454
:1032B00000321A604B689C03FCD5284B1A689001B9
:1032C000FCD53A4AC3F884201968244A41F0806149
:1032D000196013681901FCD5354BC2F888301168A4
:1032E0001E4B41F0805111601A689200FCD53149A3
:1032F00099603148314AC3F88C004FF00061C3F83F
:10330000941012682E4B9A421ED02E4B40F205723A
:103310001A602C4A136803F00F03052BFAD10F4BE8
:103320009A6842F002029A609A6802F00C02082A37
:10333000FAD15A6C42F480425A645A6E42F4804286
:103340005A66F0BC5B6E70471F4A204B12689A4267
:10335000DBD11C4B40F205121A60DAE7003802405C
:1033600000080240000C024000000240AAAA0080AF
:10337000000402400AAA0A000000AE6AF3F0FF0F40
:10338000555555025555505500100240F3FFFFCFDB
:1033900000180240FFCF3F0000F30C30001C024039
:1033A0000070004050555555085A400704304144BC
:1033B000043003440094084003008000002004E02F
:1033C00011640020003C024000ED00E041C20F41CA
:1033D00051B1064B10B41C6864680A460146184691
:1033E00023465DF8044B1847704700BF080D0020C6
:1033F00010B50448044C036821469B680122984795
:10340000207810BD080D0020A0160020000000004C
:1034100000B583B001F0A4F9064B196801A8091A98
:10342000890801F0DBF901F00FFA01F01FFD03B08C
:103430005DF804FB7C40002000000000000000005C
:10344000EFF3098305494A6822F0010268334A60B4
:1034500083F30988002383F31188704730EF00E07D
:1034600008B52022034682F31188104DAC69A06A8A
:10347000636204F12806B04206D00368A362FDF738
:1034800097FDA06AB042F8D194F822303BB994F885
:1034900021309B0703D1D4E9043213615A610F2014
:1034A000FEF7FEFB72B6024BEB62FEE7A4160020AD
:1034B0005853020800000000000000000000000057
:1034C00010B5094C2368A0691A6822600121546074
:1034D00083F82010A361FDF74BFD0146A069BDE80C
:1034E0001040FCF711BF00BFA41600200000000030
:1034F0002DE9F04F202383B0064683F31188AD4CAD
:103500002369216893F82220A14202F1010283F885
:10351000222004D0A0698A688168914239D30022B0
:1035200082F311884FF020081746DA69964270D06E
:1035300088F311881D69A5423FD095F82220FF2A03
:1035400037D0013285F822202268A24204D0A16936
:1035500092688968914224D387F3118888F311888F
:1035600093F82220CAB1013A83F822201A6A02F0A5
:10357000FF120F2A23D02368A34204D0A2699B68BC
:1035800092689A4211D387F31188002D42D02B46BE
:10359000CBE772B6884BE362FEE772B6874BE36215
:1035A000FEE772B6844BE362FEE772B6844BE362D9
:1035B000FEE772B6834BE362FEE70025C4E7D3E97A
:1035C0000412206811611969A0424A6104D0A269FD
:1035D000816892688A4261D387F3118893F8212029
:1035E00002F00302012A19D0022ACED11A6CDB693B
:1035F00088F31188206811681960A0421360C2D056
:10360000A269836892689A42BDD272B66E4BE36239
:10361000FEE71D46284603B0BDE8F08FD96951E9A1
:1036200002B30733DB0841F8043C0BF10C0A88F3C2
:103630001188DBF81400D4F81890002847D0D9F886
:10364000082083689A4209D990F820308260062BBE
:1036500000F0A680072B00F089801BB3524604E0DF
:103660009068D9F80830984202D312689245F7D191
:1036700053680191C9E900230620C3F80090C2F8FD
:103680000490C9F824A0FEF70BFBDBF81430019975
:10369000994514D072B64D4BE362FEE772B6484BC3
:1036A000E362FEE7D0E900324FF0010C80F820C061
:1036B00013605A600191FDF77BFC0199CEE7D9F8C0
:1036C00038309A4509D072B6404BE362FEE7D9F82C
:1036D0003830CBE90593C9F838A02268A24205D05A
:1036E000A36992689B689342C0F08880A1F10800AA
:1036F0000BF1040C87F311886246904205D353689E
:10370000013302EBC30398422CD39445136801D0D4
:10371000904225D90BB1984222D251F804CC41F8FD
:10372000083C106051F8083C0CF1010C00EBCC0E89
:10373000734567D0D2F804C00CF1010302EBC30358
:1037400098426ED0A16988F311888B6B002B00F032
:10375000AA809A6891425ED072B61D4BE362FEE782
:103760001A46CAE772B61B4BE362FEE7D0E9003C9B
:10377000D0F824E0CCF80030C3F804C0F44603E0ED
:10378000DCF808309A4203D8DCF800C0E645F7D1EF
:10379000DCF80430C0E900C31860CCF804005DE731
:1037A000D0E9003CD0F824E0CCF80030C3F804C0E5
:1037B000F44615E0A4160020BC5202084853020843
:1037C00048520208645302086C520208E052020890
:1037D0002C53020820530208DCF808309A4203D820
:1037E000DCF800C0E645F7D1DCF80430C0E900C3DE
:1037F0001860CCF80400DEF8080020E772B62C4B05
:10380000E362FEE7D3E9003E41F8083C0EEB0C030F
:1038100041F8043C8EE79A450AD072B6254BE36224
:10382000FEE751E90213013363441160536089E7F5
:10383000DBF80C00DBF818208A63834230D0D1F823
:103840003CC052B1D2F800E0724504D0DEF808E086
:10385000F44538BFF446D268F3E70268C1F808C0FF
:10386000816BCBF80C205360CBE905018363FDF736
:103870009FFB2268A36992689B689A427FF683AE99
:10388000FFF71EFE2368A3423FF47DAEA2699B684A
:1038900092689A42BFF477AE72B6054BE362FEE7D8
:1038A000CBF81470EEE772B6024BE362FEE700BF9E
:1038B000545202082C5302080000000000000000CF
:1038C000F8B50C4616460546FFF712FE20B172B653
:1038D000194B1A4ADA62FEE7202383F31188483C29
:1038E0002C44154B2361164A5969E56144F8200CB4
:1038F00044F8042CC4E90D00124AA26102250120FB
:1039000004F12C02258484F82200A4F164078020AD
:1039100004F128056161A06044F8246CE760E0636D
:103920000C612046C4E90A5222635C61FEF788F903
:10393000FDF7D6FA2046F8BDA41600200C53020865
:1039400021030008AC500208000000000000000045
:10395000A44BA5481A6962F0FF0280B51A611A6982
:10396000D2B21A614FF0FF341A695A695C610022C1
:1039700059695A615969196A61F080511962196A65
:1039800001F080511962196A596A5C62596A5A6277
:10399000596A196C41F080511964196E41F08051D7
:1039A0001966196E016841F480710160196F01F4A4
:1039B0004071B1F5007F86B003D04FF480311967B4
:1039C0001A67894F894C7A6889498A4BE360402697
:1039D000602322F400727A604FF0800C81F8063385
:1039E0004FF48072C1F880610E604FF4007681F868
:1039F0000733C1F880C1C1F800C081F80833C1F8AD
:103A000080210A6081F80933C1F880610E604FF4AB
:103A1000806681F80A33784DC1F8806171480E6084
:103A20004FF4000681F817330127C1F880610E605A
:103A300081F828330023C1F8842163604A6027702D
:103A40006B622F70AB63AB62EB63EB622B64026C57
:103A50002B633A430264026EDFF8E0E16B643A43A1
:103A60000266026EDEF808006B633843C5E9013375
:103A7000AB64CEF808004FF08040604C604E614A65
:103A800042F2273EC0F828E04FF0FF3EC0F82CE09D
:103A900064608361A36043632461C36064614360C5
:103AA000476107604FF0A04081F81CC34FF080577A
:103AB000E86655482867C1F880710F6004F11C0161
:103AC000524F2460C4E9071106F10C01C6E9013325
:103AD000C6E903117361376002F1280102F1100792
:103AE00002F1240693605361D362176156629162BA
:103AF00002F1400602F14401C4E909E3CDE90133D2
:103B0000636703931C2702F13C031763D3631664B6
:103B10003F4B516404273F483F4E404913624FF0EA
:103B2000140C9363C2E90022C2F818C0D76157632E
:103B300000230022C0E90061CDF800E0CDE90423B4
:103B40006846FDF70DFA6846FDF7E2F9013FF7D147
:103B5000334B61690098606780224FF00108A263CF
:103B6000E266304E84F8517003F12C0203F1280014
:103B7000C4E91977C4E9104184F85280A6640B6146
:103B8000C4E90533C4E9160284F85080E76422666C
:103B900087F3118862B62449244BCA684FF6FF00A8
:103BA000024000F160401343A0F60F30CB60C368C1
:103BB0001F4A43F08073C3601368102043EA080370
:103BC0004FF020091360C87781F8229087F311889D
:103BD00062B6184E3046FFF78BFC88B372B6164BB0
:103BE000E362FEE70038024000700040F80C00205D
:103BF00000E100E00008004028160020A416002084
:103C0000D41800201C1700208C540208810E0008D4
:103C1000510E0008C8180020E0CB00200000022050
:103C2000D4160020C053020800ED00E00003FA059E
:103C3000001000E06817002000530208002004E094
:103C400089F3118806F1B402C6E949249E4A6369E2
:103C5000C6F814219D499E4AC6F8F41006F58C70EA
:103C60000221C6E94B32A6F8381106F5A072C6E962
:103C70005478C6F83461C6F8F870C6F82081C6F8E2
:103C80004C7186F83A81186106F5A273C6E9502393
:103C9000C6F848316061FDF7D3FFFDF721F98D4B80
:103CA0008D4A03F1110113F8010FD7708B42907008
:103CB00002F10202F7D1894B894A03F10A0000217F
:103CC00013F8016BD1709842967002F10202F7D19D
:103CD000844B854A03F10C00002113F8016BD1706D
:103CE0008342967002F10202F7D1804B804A03F1C1
:103CF0001000002113F8016FD1708342967002F119
:103D00000202F7D17B4B7C4A03F10E01002713F826
:103D1000010FD7709942907002F10202F7D17748F3
:103D2000FDF70EFD76497548FDF7D2FC7548FDF7A5
:103D300007FD75497348FDF7CBFCEA6ED2F80438ED
:103D400043F00203C2F804384FF47A70FEF760F8CB
:103D5000202383F311882B785A1E012A32D86B4A0C
:103D60006A60012BC5E90377C5E90577C5E90777DF
:103D70002CD023680222A3422A7008D0A2699B6833
:103D800092689A4203D272B6614BE362FEE7002367
:103D900083F31188E96E5F4AD1F804385E485F4CBE
:103DA00023F00203C1F8043841F25011FFF788FDF7
:103DB0005B4A5C484FF4E871FFF782FD2046FEF74E
:103DC00027F8FBE772B6584BE362FEE7574BEE6EFF
:103DD0005A6B574942F080025A635A6D42F0800292
:103DE0005A655A6D5A6942F080025A615A6922F046
:103DF00080025A615B694F4AE02381F8433308230C
:103E0000C1F888318B604C4BF260C6F80038C02294
:103E10004FF40413C6F8007E3260B3633369002B9D
:103E2000FCDA012333610C20FDF75AF9376917F0EA
:103E30000107FBD11220FDF753F93369002BFCDA9F
:103E4000D5E91B03D3F808E00023B3604FF0FF3C33
:103E500000E0474600EB47110B46D1F80029002A45
:103E600007F1010805DAD1F8002942F08042C1F8D3
:103E70000029D1F8002B002A05DAD1F8002B42F0F6
:103E80008042C1F8002B7745C3F808C9C3F808CBB6
:103E9000DFD16B68DA684FF00113C0F81C380023DB
:103EA000C6F81038C6F81438C6F81C384AB1234B87
:103EB000B3614FF0FF337361B36843F00103B36044
:103EC00057E71F4BB361F4E7210300080111000815
:103ED000B4500208BB50020824080020D050020849
:103EE00048080020DC50020860080020E750020863
:103EF0007C080020F7500208A0080020080D0020D0
:103F00001C55020898110020245502082C5502085F
:103F1000B05202089126000888B70020A086010050
:103F200091240008B8B50020605102080038024012
:103F300000E100E04014004003002002083C30C0D3
:103F4000003C30C000000000000000000000000045
:103F50001248C26808B51369D1680B40D9B2C94389
:103F6000DB07116107D50378042B08D043685B6831
:103F70000BB10A489847BDE80840FCF739BF002359
:103F80000221017013601361D36823F0FF03D36033
:103F900043685B68002BECD1EDE700BFF80C002014
:103FA0002DE9F8434FF080442369E2681340DAB208
:103FB000D2439B07226103D4BDE8F843FCF718BF46
:103FC000202383F31188264D606AEB69AA6A9968F9
:103FD000861AB14205F11C0898BF00271FD84FF080
:103FE000200900E0AA6A18680A444045AA62A6EBC4
:103FF0000106DA68C0F80480E861DF6008BFE760A6
:1040000087F311881869904789F31188EB699968DB
:104010008E42E7D2606AAA6A861A8E42DFD2434590
:1040200016D09968A862091A0A44022A2CBF80187F
:1040300002309A60FDF7F4FD4FF08043AA6A5B6A94
:10404000801A9B1A834203D972B6064BEB62FEE7D5
:10405000002383F31188BDE8F843FCF7C9BE00BF15
:10406000A416002084520208000000000000000096
:104070002DE9F84FA54CE66E7569B3691D4015F43E
:104080008058756140F04481002DC0F2CE80290532
:1040900038D5D4E91B730021D3F808904FF0FF3CCA
:1040A00000E0714607EB41121346D2F800090028E0
:1040B00001F1010E05DAD2F8000940F08040C2F8A3
:1040C0000009D2F8000B002805DAD2F8000B40F006
:1040D0008040C2F8000B4945C3F808C9C3F808CBB3
:1040E000DFD1227884F868206368052222701B687B
:1040F0004FF00112C7F81C2813B1844804219847D7
:104100000023A360AA040CD5D6F8083813F0060FD4
:10411000F36823F470530CBF43F4105343F4A053DB
:10412000F3602B0735D4EF023BD4A80200F1C28024
:10413000EB0600F194802B03D6F8184811D5E7035D
:1041400000F1BA81A60300F1BD81600300F1C081D6
:10415000210300F1C381E20200F1C681A30200F154
:1041600052816F0311D5E60700F18A81A50700F19E
:104170008D81600700F19081210700F19381E206B3
:1041800000F19681A30600F14581BDE8F84FFCF7E8
:104190002FBE6368DB68002BC5D05C489847EF02F0
:1041A000C3D50021D4F86CB0DFF860A10F464FF002
:1041B000010906E0236F01379B68FFB29F42394631
:1041C000B3D80BEB4713D3F8002902F44022B2F521
:1041D000802FEFD1D3F80029002AEBDAD3F8002999
:1041E00042F09042C3F80029D3F80029002AFBDBF3
:1041F000E26E890141F02001116113699906FCD436
:104200001220FCF76DFF04EB87032189DA6809FAB5
:1042100007F3926821EA0303238112B1394650461D
:1042200090473846FCF734FDC4E7D6F8003E9807BF
:1042300040F0E28094F8683062682370D6F8043861
:10424000126823F00103C6F80438002A3FF41FAFB8
:1042500005212E48904729057FF554AF19E7E16EF7
:104260000B6A03F4F010B0F5802FC3F30A1203F0C9
:104270000F0300F0D680B0F5402F7FF45CAF04EB65
:104280008303DB68186A002A3FF455AF01F58054B8
:1042900000239F0708BFD4F80080072B014603F1D5
:1042A000010304D801F8018B4FEA182808469A4206
:1042B000EFD140E7D4F86C90DFF850B000274FF012
:1042C000010A06E0236F01379B68FFB29F423FF669
:1042D0002FAF09EB4712D2F8003B03F44023B3F5AC
:1042E000802FEFD1D2F8003B002B04EB87000AFAB5
:1042F00007F1E7DAC2686389D26823EA0103584606
:1043000039466381002ADDD09047DBE7281600207C
:10431000002302212022C4E90333C4E90533C4E9A0
:104320000733636684F84C30A360217032613569CD
:1043300015F02005FBD11220FCF7D2FED4F870C096
:10434000C6F834584FF00113DCF80870C6F81C3872
:104350004FF000604FF0FF3106EB4513BD42C3F84C
:10436000000905F10105C3F8000BC3F80819C3F8EB
:10437000081BF1D1DCF800306367DCF80020E36E45
:10438000726210221A611D6915F01005FBD112200E
:10439000FCF7A6FED6F800385548564923F4FE63CC
:1043A000C6F80038B369D4E91C7243F4402343F0E3
:1043B0001003B36102F1100363677F68E0600920B6
:1043C000C6F81008BB42C6F814084FF0C040C6F843
:1043D000100BC6F8001BC6F81059C6F800194AD8C9
:1043E00063681B6842F48012B262002B3FF4CDAECA
:1043F000414829469847C8E6D6F8003E23F0030313
:10440000C6F8003E16E70520FCF75AFF6F037FF55C
:10441000BCAEA8E60520FCF7CBFEBDE8F84FFCF7E4
:10442000E7BC03F1020A04EB8A035B689B69D3E9EA
:1044300001971868A0EB090EC2B101F5805C00235A
:10444000980708BFDCF800809E45394603F1010358
:1044500004D901F8018B4FEA18280F469A42EFD190
:1044600004EB8A0463689B69D3E9019717444A44C3
:10447000C3E901275FE672B6204B214ADA62FEE704
:104480000020FCF795FEA5077FF573AE0120FCF731
:104490008FFE60077FF570AE0220FCF789FE2107D2
:1044A0007FF56DAE0320FCF783FEE2067FF56AAE72
:1044B0000420FCF77DFE65E60020FCF701FFA60363
:1044C0007FF543AE0120FCF7FBFE60037FF540AEB5
:1044D0000220FCF7F5FE21037FF53DAE0320FCF73B
:1044E000EFFEE2027FF53AAE0420FCF7E9FE35E686
:1044F000D85302084080001028160020A41600207F
:104500005051020800000000000000000000000000
:10451000F0B4144F144D1548154B164907F1700CA3
:104520000026984211D904391A4651F8044F42F82E
:10453000044B9042F9D8421ED21A22F003020432F0
:1045400013449D4203D943F8046B9D42FBD8674551
:1045500005D0D7E90413D7E906051037E1E7F0BC29
:10456000704700BF9C540208DCCB0020DCCB00204D
:10457000DCCB0020E8D902080000000000000000A9
:10458000FEE700BF00000000000000000000000087
:10459000704700BF000000000000000000000000A5
:1045A000704700BF2DE9F0432A4C00250326D4F8BC
:1045B000A8710021013143189A0803F00303BA5C83
:1045C0005B0042FA03F303F00303022BF2D0D4F8AA
:1045D000B43109018A0803EB001089B300EB8201B2
:1045E00003681A0729D1D4F8B4219A4225D89A1A17
:1045F000C2F301174FEA470ED4F8B8719F424FEA51
:10460000921C4FEA121218D9D4F8A88118F80C900D
:1046100049FA0EF707F00307012F0ED106FA0EF341
:1046200004EB850E3F2D43EA090308F80C309ABFCE
:104630000135CEF8C021C4F8BC7104308842CFD116
:104640002DB1013D04EB8503D3F8C001AFE7BDE810
:10465000F08300BF04C90020F0B4194ED6E96C43C2
:10466000C01AC109C0F30215635C0122AA4023EA03
:1046700002036354D6F8CC2283090409B2EB901FDD
:10468000D6F8A80188BFC6F8CC32C15CA50804F0F2
:10469000030303275B0007FA03F321EA03034355EF
:1046A0000134D6F8A801A50804F00303415D5A00BF
:1046B00041FA02F202F00302022AEBD0F0BC70478A
:1046C00004C9002021F00F0370B5144A144D1C1AC0
:1046D000E400A2FB0424640A0219A3EB8416C5F8C3
:1046E000B02100212246C5E96D63C5E96A040DF0D9
:1046F000BAF9A2000732D2080021D5F8B0010DF0B6
:10470000B2F900234FF480314FF0FF32C5E9B132E6
:10471000C5F8C012C5F8CC3270BD00BFF32C23FA27
:1047200004C90020034AB2F8C0320133A2F8C032F3
:10473000704700BF04C90020034AB2F8C032013BF1
:10474000A2F8C032704700BF04C90020034BB3F881
:10475000C002003818BF0120704700BF04C9002004
:10476000F8B51D4BB3F8C022002101321C46A3F856
:10477000C0221D4603F5C076C3F8C412C3F8BC11AD
:10478000032755F8042F13071AD1D4F8B401824235
:1047900016D3D4F8B811101AC0F301138A424FEAA5
:1047A000901C4FEA43034FEA101009D2D4F8A81125
:1047B00011F80CE04EFA03F202F00302012A02D0D3
:1047C000AE42DED1F8BD07FA03F343EA0E0301F867
:1047D0000C30FFF7E7FEF3E704C9002081B3F8B51A
:1047E000041F184E04EB8105032754F8043F1A07F1
:1047F0001AD1D6F8B401984216D8D6F8B811181ABA
:10480000C0F3011299424FEA901C4FEA42024FEA6C
:10481000101009D9D6F8A81111F80CE04EFA02F3DD
:1048200003F00303012B02D0A542DED1F8BD07FA45
:1048300002F242EA0E0201F80C20FFF7B3FEF3E7A2
:10484000704700BF04C900202DE9F04F5A4CD4F83E
:10485000BC3185B0002B00F0AB80D4F8AC31002621
:104860009A00C4F8BC61002A43D00025D4F8A811EE
:10487000AB08CB5C05F0030149000B4103F00303D7
:10488000032B41D001359542F0D3D4F8BC31002B35
:10489000E7D172B34FF0000E76464FF0030A4FF0A7
:1048A00001094FF0020804E0012B4BD0013696427B
:1048B0001FD2D4F8A8C1B70806F003051CF80710EA
:1048C0006D0041FA05F303F00303022B0CEB960095
:1048D0002AD0032BE8D108FA05F521EA05010CF8E6
:1048E0000710D4F8AC3101369A0096424FF0000E12
:1048F000DFD3B4F8C0320022013BA4F8C032C4F8C0
:10490000CC2205B0BDE8F08F2846FFF74BFED4F867
:10491000AC310135B5EB830F4FEA8302A6D3D4F84F
:10492000BC31002B9DD1B4E7BEF1000FBED00AFA16
:1049300005F521EA05010170D4F8AC314FF0010E04
:104940009A00B3E7D4F8B021F30806F0070B12F889
:1049500003C001934CFA0BFE1EF0010F02EBD602CE
:10496000E5D0D4F8B4013101415800EB0610A1B1F3
:1049700002AAB12101F0B0F9DDE9013242B102F041
:104980002BF9DDE9020102F00DF902F037F9019B84
:10499000D4F8B02112F803C01A4409FA0BFB2CEA30
:1049A0000B0C82F800C0D4F8A831D95DD819BEE745
:1049B000D4F8AC319A006CE704C90020054BB3F879
:1049C000C02200210132A3F8C022C3F8BC11FFF7B6
:1049D0003BBF00BF04C900203B4BD3E96D122DE95A
:1049E000F047D3E96A760023C0E90233C0E9043313
:1049F000521AC0E900231D4683619E469C461C4610
:104A00001A46994619469846B60017F809304900E3
:104A10000B4103F00303012B49D0022B43D0002BA1
:104A200039D0013296420ED04FEA920902F00301CA
:104A300017F809304FEA410A43FA0AF313F0030367
:104A400001D0012BE1D1012C11D0022C02D14169FE
:104A5000013141618169A14238BF846196420FD022
:104A6000012B28D04FEA920902F00301CDE701693A
:104A7000013101618169A14238BF84619642EFD161
:104A8000C44501D9C0F80CC02D014FEA0E13C0E98E
:104A90000153BDE8F0870EF1010EC0F808E00CF1FB
:104AA000010C1C46BDE7013545600134B9E701350D
:104AB00045601C46B5E7E04502D2C0F80CC0E046B0
:104AC0004FF0000CCEE700BF04C900200F302DE9E5
:104AD000F843060951D0674CB4F8C032002B4CD1D2
:104AE000B4F8C232002B0D460CBF4FF0010E4FF050
:104AF000000E47D1D4F8CC02D4F8AC71874239D932
:104B0000D4F8A8C1411E614400221AE00132964245
:104B100053D913F00C0F1ED10132964240F2A080FF
:104B200013F0300F1CD10132964240F29C8013F0FA
:104B3000C00F1AD10132964240F298800130B8423B
:104B400018D211F8013F13F0030FDFD013F00C0F50
:104B50004FF00002E0D013F0300F4FF00002E2D02F
:104B600013F0C00F4FF00002E4D00130B8424FF014
:104B70000002E6D3BEF1000F14D04FF0000840460B
:104B8000BDE8F883D4E9B1239A42B3D3FEF740FCE1
:104B9000D4F8CC02D4F8AC71B84238BF4FF0010E53
:104BA000AED3EAE7FEF734FCD4F8CC02D4F8AC710B
:104BB00087424FF0010EA3D8DFE78000811A012A57
:104BC00001F1010703D1431C9B08C4F8CC324FEA22
:104BD000970E07F003031CF80E904FEA43080123D9
:104BE00003FA08F3023143EA090388420CF80E3055
:104BF00013D34FF002084FEA910CD4F8A8E101F06A
:104C000003031EF80C905B0008FA03F3013143EA3A
:104C1000090388420EF80C30EDD2D4F8B491D4F8E0
:104C2000C43209EB07181E44120140460021C4F8A3
:104C3000C4620CF018FFEB074FEA07169FD500235C
:104C4000D4F8B01149F80630FA080123885C07F05F
:104C5000070703FA07F707438F544046BDE8F88378
:104C600080000130AAE780000230A7E7800003300F
:104C7000A4E700BF04C90020034BB3F8C02212B957
:104C800008B1FFF7E9BC704704C9002010F00F021B
:104C90001CD11749D1F8B431834218D810B4D1F8D7
:104CA000B84184420ED9C31AD1F8A8419909C3F377
:104CB0000110615C4000014101F0030101294FEA4C
:104CC000131306D010465DF8044B704700221046BF
:104CD000704701329918880801F00301205C4900EF
:104CE00040FA01F101F003010229F2D01201E9E7D3
:104CF00004C900202DE9F84F8E460746002800F031
:104D0000AA80002974D0584EB6F8C042002C74D145
:104D1000D6F8B411D6F8AC31411A080900F1010CEB
:104D20000EF10F05BCEB830F4FEA830A4FEA15150E
:104D300080F09780D6F8A8914FF001084FEA9C0BBD
:104D40000CF0030319F80BB05B004BFA03F303F00C
:104D50000303022B55D023B9013404EB0803AB4203
:104D600051D3454540D020D34444AC4250D2002AD0
:104D700043D0D6F8B031C90900F00700595C0141B1
:104D800001F001017046FFF7A1FE0446A8B34FEA07
:104D9000081239460CF026FEB6F8C0322BBB384656
:104DA000FFF75AFC2046BDE8F88F05442C464044E6
:104DB0004FF003094FEA940ED6F8A81104F003034C
:104DC00011F80EC05B0009FA03F301342CEA030367
:104DD000844201F80E30EDD1D6F8CC32AA08B3EBFC
:104DE000950F88BFC6F8CC223C462046BDE8F88F18
:104DF0001D4BB3F8C042002CD2D000242046BDE8A1
:104E0000F88F08F101080CF1010CE24596D1A8E7F2
:104E100000EB08022844904211D94FF0020E94088A
:104E2000D6F8A81102F0030311F804C05B000EFAD3
:104E300003F3013243EA0C0390420B55EFD1A5EB8B
:104E40000802120107EB081000213C460CF00BFE93
:104E50002046BDE8F88F01467046BDE8F84FFFF7E1
:104E600035BE4FF001087CE704C9002000B589B0C9
:104E700001A8FFF7B1FD09B05DF804FB2DE9F0478B
:104E8000DFF86CA14B49DAF8B4214B4800F03AFC4A
:104E9000DAF8AC11890078D0DFF85891DFF8588142
:104EA000454F00250EE0012E3ED02E2243493846C4
:104EB00000F028FCDAF8AC310135B5EB830F4FEA8E
:104EC000830162D215F03F0610D005F0030676008C
:104ED000DAF8A821AB08D35C43FA06F606F003061D
:104EE000022E1FD0032EDED16D22DFE7DAF8A801F3
:104EF0002C46A20804F00303825C5B0042FA03F331
:104F00009B0702D101348C42F3D3621B7F2A30D835
:104F100005F00306760009EA05124146384600F01E
:104F2000F1FBD5E73D22C1E7DAF8B411244B2A01A1
:104F30008A589A422FD0234B9A422ED0224B9A4223
:104F40002FD0224B9A422AD0214B9A4227D0214B74
:104F50009A4228D0204B9A4225D0204B9A4226D004
:104F60001F4B9A4221D01F4B9A420CBF4D22682200
:104F70009CE71D499209384600F0C4FBDAF8AC31D1
:104F800024F03F05B5EB830FC5D3BDE8F0471749C3
:104F9000094800F037B8542288E74C2286E75322AC
:104FA00084E7442282E7412280E742227EE74622CC
:104FB0007CE700BFD05602082457020814570208A5
:104FC000CC750208646D0208086002089C7402082F
:104FD00008720208805C0208445C0208306702081C
:104FE000C06702083C6E0208F0560208EC56020840
:104FF00004C90020F0FF0F000C57020808461146B4
:105000000CF030BB37B50546084601910CF05FFD4A
:10501000044620B102466B680199286898472046EB
:1050200003B030BD2DE9F74F89469DF83010174683
:105030000D9A11F0DF0F0646A2EB07023DD0302992
:1050400025490CA813BF804688464FF0100A4FF040
:10505000010A13F0800535D002EBD2746510A2EB83
:105060006404002D35DDAB46DA455246736830687E
:10507000A8BF5A46414601929847019AABEB020BF2
:10508000BBF1000FF0DC2FB1736830683A46494637
:1050900098473D44002C0CDD2544A2455746A8BF47
:1050A0002746736830683A464146E41B9847002C0F
:1050B000F3DC284603B0BDE8F08FDFF820804FF026
:1050C000100AC6E713F0010401D11546C9E71446DA
:1050D000D9E70025D7E700BF3D5702082C57020843
:1050E0002DE9F04389B006460020119D9DF84880C7
:1050F000139F8DF80F000AB381421ADA2D228DF822
:105100000F204942109A08ACA2F10A000DF11009D3
:10511000B1FBF3FC03FB1C12092A8CBF12183032BE
:1051200004F8012D4C458E4661460ED07345EFD9EB
:105130000BE0A80727D52B228DF80F200029E1D1FD
:1051400030238DF81F300DF11F0415F040099DF834
:105150000F301CD023B30122CDE900822B460DF184
:105160000F013046FFF75EFF013F814608AACDE9F7
:1051700000872B46121B21463046FFF753FF484459
:1051800009B0BDE8F0836A07D8D52022D4E7002B08
:10519000ECD004AA9442E9D904F8013C013CE5E7CB
:1051A0009946E3E72DE9F04F93B081461D46C807C5
:1051B0009DF874301C9E0693DDE91E7A0C469046DD
:1051C0000BD4A10703D122687A4B9A4205D020461E
:1051D00002F076F8400040F0010416F0810306D199
:1051E000069A302A03D15745B8BF57469A462046FB
:1051F00004F079FE00280DF1280B18DBB20712D558
:105200002B238DF828300DF12902F006EDB21DD5C3
:10521000B8F1020F0DD11346302103F8021B691CAF
:1052200051701A4612E0730701D52023E9E75A4668
:10523000EBE7B8F1080F60D1B1054FF03003137000
:1052400045BF05F10E03537001320232A2EB0B038E
:10525000002116F0200F117005930EAA0CBF0B460B
:105260002C23BAF1010F0B92C8BF46F04006102262
:10527000CDE90C2116F04002CDE902538DF827103C
:10528000079244D0CDE9008123460DAA0CA90BA8B2
:1052900004F0FAFC03782D2B804606D18DF82730D8
:1052A0000D9B013B00F101080D93BAF1010F3CDDAC
:1052B0000D9D079B5545B8BF55462BB19DF827302E
:1052C00003B10135059B1D44AF422BDD16F00103F0
:1052D000A7EB050527D12C461D4626F001064CB14B
:1052E000202300930023019433491A464846FFF7D0
:1052F00099FE04463023069319E0B8F1100FA5D1AA
:105300001346302103F8021B05F1170188E70AABA9
:10531000CDE900830DAA23460CA90BA804F0B4FC28
:105320008046C2E700250024D7E700252C46079BCE
:10533000DBB19DF8273053B100230122CDE90032C3
:105340000DF127014846FFF76DFE013F0444059B20
:105350005BB100230122CDE900325946059A484647
:10536000FFF760FE059B0444FF1A069B0093BAF109
:10537000010FC8BF57460D9A01973346414648462C
:10538000FFF750FE04444DB12023009300230A4947
:1053900001951A464846FFF745FE04440B980EABAC
:1053A000984202D00C990CF0D5FE204613B0BDE80F
:1053B000F08F00BFCC6B02087F8D02082DE9F0430F
:1053C00016468BB0B207DDF84890074698463DD4A4
:1053D00016F0040F0CBF0023202300930A46139BF2
:1053E000202102A800F09CF9F30504460DD5431CCA
:1053F0001F2B0AD80AAA1444252204F8202C0AAA32
:105400001A44002102F8201C1C4616F040051FD04B
:105410009DF808302F2B4FF000031BD8012202A962
:10542000CDE900323846FFF7FDFD09F1FF390546A9
:10543000013C0DF10901CDE9008933462246384689
:10544000FFF7F0FD28440BB0BDE8F0832B23C4E741
:1054500002A9F0E702A91D46EDE700002DE9F04F93
:10546000824689B0144600260B461D4613F8012BD0
:1054700082B9A94211D30B78002B00F03B81013196
:1054800020234FF000080A4612F8015B7DB94FF067
:105490000A0C2AE0252AE8D1EBE76F1ADAF8043083
:1054A000DAF800003A4698473E442946E3E72D2DB6
:1054B00003D148F001081146E5E72B2D02D148F051
:1054C0000208F8E7202D02D148F00408F3E7212D67
:1054D00002D148F00808EEE7302D21D148F040080D
:1054E0002B46E8E70CFB0525303D0F4611F8012B54
:1054F000A2F130000928F5D92E2A41D17A782A2A3A
:1055000010D000204FF00A0C0F4611F801BBABF190
:105510003002092A09D80CFB00BBABF13000F3E7DD
:105520000025B4E754F8040B023720EAE07B3A7810
:105530006C2A08BF013797F80090B9F1000F00F00E
:10554000D980B9F1780F6AD8B9F1570F1BD8B9F1E2
:10555000470F61D8B9F1440F61D9073424F007042B
:10556000F4E802010493FBF73FFBCDE9005B00EE9A
:10557000100A049B424649465046FFF71FFF62E06F
:105580004FF0FF3BD3E7A9F15802202A47D801A1E9
:1055900051F822F0C35600081F5600081F56000895
:1055A0001F5600081F5600081F5600081F56000807
:1055B0001F5600081F5600081F56000831560008E5
:1055C00053560008A75600085B5500085B550008B5
:1055D0005B5500081F5600081F5600081F5600089C
:1055E0001F5600081F5600081F5600081F560008C7
:1055F0001F560008E5560008675600081F560008A9
:105600008B5600081F560008C35600081F56000896
:105610001F560008C3560008B9F1500F62D0DAF8DF
:105620000430DAF8000001223946984701360BE0D1
:1056300054F8042BCDE9003543463AB12F490422F2
:105640005046FFF7EFFC0644791C0DE72C49052274
:10565000F6E754F8042B8DF81C20CDE90035012223
:10566000434607A9ECE707A954F8040B04930CF090
:1056700094FEBBF1FF3F049B014601D1DDF81CB055
:10568000CDE900355A464346DAE7BBF1FF3F54F80F
:10569000041BF5D10846059304910CF018FADDE9D6
:1056A00004138346ECE7CDE9023561230093CDF87E
:1056B00004800A23012254F8041B5046FFF710FD12
:1056C000C1E729F00F0209F101010F3A01F00601CB
:1056D000D2B2CDE90235CDF804800092C1F11003B9
:1056E0000022E8E7CDE9023561230093CDF804807C
:1056F0001023F5E7304609B0BDE8F08F17570208D0
:105700001C5702080EB403B503AA52F8041B0192F9
:10571000FFF7A4FE02B05DF804EB03B07047000091
:105720002DE9F74F06299DF8305010D8012905D9E9
:105730003F2300F8013B0023037001E00029FAD168
:10574000012994BF0020012003B0BDE8F08F10EEC6
:10575000104A002C044622DAB4EE400AF1EE10FAA8
:105760001DD62D2504F8015BB1EE400A9FEDC27AEB
:10577000F0EEC07AF4EE477AF1EE10FA02F0200E65
:1057800012DD8EF0490323708EF046058EF04E0335
:105790006370E11CA57000230B70081AD4E7002D7C
:1057A000E4D004F8015BE1E7B4EE400AF1EE10FA50
:1057B00008D74EF04E038EF0410523706570E11C52
:1057C000A370E8E7002B42F02002B8BF0623672A47
:1057D00002D1002B08BF012310EE106A251A491BC5
:1057E000002E01F1FF3547D1662A37D15E1CAE424B
:1057F000A8BFCB1E00275D1C6621BC463E4665291E
:1058000023EAE37840F0098108F1010500230193C0
:105810004FF02E0BB2EE047A019B9D4200F30681FD
:10582000662A40F03381AE4240F3848197B10A2169
:1058300096FBF1F301FB136693FBF1F201FB1232CD
:105840004EF0450E3032303684F800E06770A270BA
:10585000E670043400232370201A75E75E1DAE4203
:10586000A8BFCB1F652A11464FF0000540F0CF803E
:105870002B27AC462E46C2E7B6F17E5F6FD2DFED36
:105880007F7ADFF80082DFF800A2B4EEE70AF1EEDB
:1058900010FA4FF00007ACBF4FF031094FF030095C
:1058A0004FF0200C3E46B8EC017AB4EEC07AF1EE2F
:1058B00010FAC4BF0AEB070B9BED007A07F104074F
:1058C000C4BF664420EE070A182F4FEA6C0CEAD1D9
:1058D00010EE107AB7F17E5F27D2B4EEE70AF1EE50
:1058E00010FA1DDB002E14BF2D272B27B7EE000A60
:1058F000662A03D0672A28D1042E26DC672A04BF33
:1059000006F1FF37DB195F1CAF42A8BFCB1E84F83E
:10591000009063B901341D461F464FF0FF3C58E02C
:10592000F2EE047A20EE270A01362D27E0E72E2139
:1059300061701D4602343021013E6AD00DB92F46F8
:10594000EBE704F8011B013DF6E78D1F9D4202DCE9
:10595000672A60D0CB1F11460025AC464FE70027D1
:10596000DFF82481DFF81C914FF0200C3E46F8EC64
:10597000017AF4EEC07AF1EE10FA9CBF09EB070A47
:10598000DAED007A07F104079CBF664420EE270A8F
:10599000182F4FEA6C0CEAD1FDEEC07A17EE907A20
:1059A000092FC2BFDFED367A013620EE270A662ABC
:1059B00011D1AE4217DA99190131A94205DBAD1BAD
:1059C000012DA5F1020308BF0023F5180135B446E7
:1059D0000027662113E7652A05D0672A0CD01146F7
:1059E00000252B27B9E78D1F9D4200DCCB1F00252A
:1059F0002B27AC46652102E71F1DAF4200DB8B1F42
:105A00009E4201DB6721EBE7711C5B1ADDE72F4645
:105A10002FE7374681E72B469DE767297FF4F6AEEF
:105A2000002BDABF0125A8464546EFE6FDEEC07A19
:105A300004F1010A17EE903A002BA8BF03F13009D8
:105A4000019BACBF5FFA89F94FF030099C4584F89F
:105A5000009006D1B8F1000F03D004F1020A84F8D7
:105A600001B0F8EEE77A019B30EE670A013320EED1
:105A7000070A01935446CFE6FFFF7F7FF8FF7F3F81
:105A8000CDCCCC3D5057020868570208F1EE047A9D
:105A9000B4EEE70AF1EE10FA24DB631E4FF0300992
:105AA0001D782E2D03F1FF3C2ED0A5F1300ABAF15E
:105AB000090F2BD901331D78302D13D193F801C074
:105AC000BCF12E0F2FD166292DD02D2F83F800C0C9
:105AD0005D7026D1013E08BF2B2721468B4224D37F
